:100000000C94C9000C9444200C9475200C94A620E8
:100010000C94D7200C9408210C9439210C946A215B
:100020000C949B210C94F3000C94F3000C94F300BB
:100030000C94F0050C94F3000C94F3000C94AE04B3
:100040000C94F3000C94F3000C94F3000C94F30064
:100050000C94F3000C94F3000C94F3000C948904BA
:100060000C94F3000C94F6260C94F3000C94F3001B
:100070000C94F3000C94F3000C94F3000C94F30034
:100080000C94F3000C94F3000C94F3000C94F30024
:100090000C9437270C94F3000C94F3000C94502923
:1000A0000C94F3000C94F3000C94F3000C94F30004
:1000B0000C94F3000C94F3000C94F3000C94F300F4
:1000C0000C94F3000C94F3000C94F300002124270B
:1000D0002A2D3033002225282B2E313400202326D0
:1000E000292C2F3205050505030303030101010433
:1000F00004030606060606060606010405010501B8
:1001000003020202020202010202050504040304C2
:1001100004010304070707010208101020408004AF
:1001200008102040020204081020408001028020B4
:100130004004200101020408102001408040800199
:1001400002080408800410040201000008090000ED
:10015000000000000000000000000000000000009F
:10016000000000000000000000000000000000008F
:100170000000000000000000000000000000DC069D
:10018000930BCC0B5C0CC413F013FE1318291D2920
:10019000282911241FBECFEFD1E2DEBFCDBF1DE065
:1001A000A0E0B2E0E0ECFFE500E00BBF02C007908A
:1001B0000D92AE37B107D9F71BE1AEE7BDE001C044
:1001C0001D92A038B107E1F711E0C2E9D1E004C007
:1001D0002297FE010E94412BCE37D107C9F70E941A
:1001E00082040C94DE2F0C940000CF93DF93EC017B
:1001F0001092840D87EA90E10E94A1130E94D3041B
:100200006093860D7093870D8093880D9093890D70
:1002100012C087EA90E10E944B0D8823F9F486EA28
:1002200090E160E072E00E943F0C60ED77E080E0DA
:1002300090E00E94EB040E94D3042091860D30913F
:10024000870D4091880D5091890D621B730B840BB3
:10025000950B605E7E4280409040D8F20E94D304AD
:100260002091860D3091870D4091880D5091890D18
:10027000621B730B840B950B615E7E428040904045
:1002800080F086EA90E164E172E00E943F0C0E94F7
:100290006C0BBC0186EA90E10E94060C1092840D62
:1002A00003C081E08093840D2197C1F487EA90E137
:1002B0000E942410882391F41092840D87EA90E123
:1002C0000E946C11882351F41092840D87EA90E10A
:1002D0000E94A111882311F41092840D8091840D45
:1002E000DF91CF910895AF92BF92CF92DF92EF92BC
:1002F000FF920F931F93DF93CF93CDB7DEB7C05517
:10030000D0400FB6F894DEBF0FBECDBF5C018AE8C7
:100310009DE063E372E00E94842CBC0100E010E0E9
:100320007E010894E11CF11C84E1C82ED12C14C07C
:100330000C9DC0010D9D900D1C9D900D11248E0DE6
:100340009F1D0E94AD2C80E090E063E372E00E946C
:10035000842CBC010F5F1F4F6115710549F7C70160
:100360000E94662C00D000D000D0EDB7FEB73196C9
:10037000ADB7BEB71296FC92EE92119725E332E02C
:10038000338322830196958384830E94072D00D0B6
:1003900000D000D0EDB7FEB731968AE89DE0ADB74A
:1003A000BEB712969C938E93119788E392E0938345
:1003B0008283F582E482CE01459697838683CE01BF
:1003C000899691878087CE01CD96938782870E94F8
:1003D000072D8DB79EB70C960FB6F8949EBF0FBE33
:1003E0008DBF0E94D3046093860D7093870D809318
:1003F000880D9093890D81E090E00E94F50088239C
:1004000009F072C00E94D3042091860D3091870DAF
:100410004091880D5091890D621B730B840B950BD5
:1004200060567A4E8040904008F05EC086EA90E1C7
:100430006EE672E00E94450C60ED77E080E090E0AF
:100440000E94EB040E94D304D6CF86E594E10E947B
:10045000ED1334C086EA90E16AE872E00E94450C30
:1004600086EA90E162E972E00E94450C8501055F31
:100470001F4F86EA90E1B8010E94450C86EA90E1A0
:1004800063EA72E00E94450C86EA90E16AE87DE04A
:100490000E94450C87EA90E16AE87DE0A8010E948D
:1004A000CA11882329F086EA90E16DEA72E004C05F
:1004B00086EA90E169EB72E00E94450C87EA90E1E0
:1004C0000E948713C05BDF4F0FB6F894DEBF0FBEEC
:1004D000CDBFCF91DF911F910F91FF90EF90DF90F3
:1004E000CF90BF90AF9008950E94D3042091860DC5
:1004F0003091870D4091880D5091890D621B730BCF
:10050000840B950B61567A4E8040904008F4A2CF40
:100510009CCF8F929F92AF92BF92CF92DF92EF9239
:10052000FF920F931F93DF93CF93CDB7DEB7C45ADB
:10053000D0400FB6F894DEBF0FBECDBF4C015B01BB
:100540001092840D8FEE9DE00E945D0B8FEE9DE07A
:100550006BEC72E00E945707882309F478C186EAA1
:1005600090E169ED72E00E94450C8FEE9DE06BEC2E
:1005700072E00E94E0077B018C018FEE9DE06BEC46
:1005800072E020E030E040E050E087010E94520934
:1005900000D000D00AE81DE0ADB7BEB712961C939C
:1005A0000E93119714969C938E9313970E94072D88
:1005B0000F900F900F900F9086EA90E16CEE72E032
:1005C0000E94450C86EA90E1B8010E94450CC801E2
:1005D00063E372E00E94842CBC0100E010E035E58A
:1005E000C32ED12CCC0EDD1E24E1E22EF12C14C042
:1005F0000E9DC0010F9D900D1E9D900D11248C0D20
:100600009D1D0E94AD2C80E090E063E372E00E94AB
:10061000842CBC010F5F1F4F6115710549F78E01D6
:10062000095E1F4FC801B6010E94AD2C9BE2E92E66
:10063000F12CEC0EFD1EE4E1F0E0CE0EDF1EC70152
:10064000B6010E94AD2C84E190E0C80ED91ECE0107
:10065000CF96B6010E94AD2CA4E1B0E0CA0EDB1E1D
:10066000C801C396B6010E94AD2CC8010E94662C39
:100670008C01C7010E94662CBC01C80101960E9432
:10068000EF2A892B29F4012B19F081E08093840D46
:10069000B1E0AB16B10441F586EA90E16FEF72E08C
:1006A0000E94450CC4016FE073E00E94A42C0097E7
:1006B00009F06DC08E01095E1F4FC8010E94662CB3
:1006C00000D000D000D0EDB7FEB73196ADB7BEB7C1
:1006D00012961C930E93119725E332E03383228305
:1006E00001969583848326C0AB2809F056C086EA1C
:1006F00090E165E373E00E94450CC4016FE073E094
:100700000E94A42C009709F042C000D000D000D075
:10071000EDB7FEB731968E01095E1F4FADB7BEB77C
:1007200012961C930E93119785E392E09383828334
:10073000158214820E94072D00D000D000D0EDB7A2
:10074000FEB731968AE89DE0ADB7BEB712969C938E
:100750008E93119784E193E09383828315830483BE
:10076000CE018B9697838683CE01CF969187808723
:100770000D5C1F4F138702870E94072DEDB7FEB750
:100780003C960FB6F894FEBF0FBEEDBF06C086EADA
:1007900090E161E273E00E94450C86EA90E162E438
:1007A00073E00E94450C86EA90E16AE87DE00E94D1
:1007B000450C8FEE9DE06BEC72E04AE85DE000E0F6
:1007C00010E020E030E00E947E08882331F086EAC5
:1007D00090E163E573E00E94450C86EA90E165E7ED
:1007E00073E00E94450C8FEE9DE06BEC72E00E947E
:1007F000E0077B018C018FEE9DE06BEC72E020E066
:1008000030E040E050E087010E945209BC0186EAD6
:1008100090E10E94450C8091840D8130F1F48E01AD
:10082000095E1F4F7E010894E11CF11CC701BE0147
:10083000615C7F4F0E94AD2C0D5C1F4FCE010C966A
:10084000B8010E94AD2CC7010E94730106C086EA60
:1008500090E16DE873E00E94450C8FEE9DE00E94F0
:10086000510BCC55DF4F0FB6F894DEBF0FBECDBF96
:10087000CF91DF911F910F91FF90EF90DF90CF907C
:10088000BF90AF909F908F90089586EA90E161EAC3
:1008900073E00E943F0C4091850D4F5F4093850DA2
:1008A000415050E060E070E086EA90E12AE030E0FC
:1008B0000E94340C86EA90E16BEA73E00E94450CDA
:1008C00060E47FE180E090E00E94EB048091850D80
:1008D00063E00E94CF2A992341F090E080916F0D50
:1008E000882309F491E090936F0D60916F0D8FE074
:1008F00093E070E00E948902089586EA90E10E94E8
:10090000530C08950E9433050E947D040E94450403
:10091000FDCF1F920F920FB60F9211248F939F93CA
:10092000AF93BF938091F4189091F518A091F618A9
:10093000B091F7180196A11DB11D8093F418909302
:10094000F518A093F618B093F718BF91AF919F9147
:100950008F910F900FBE0F901F9018951F920F92BE
:100960000FB60F9211248F939F93AF93BF938091F3
:10097000F8189091F918A091FA18B091FB18019607
:10098000A11DB11D8093F8189093F918A093FA183F
:10099000B093FB18BF91AF919F918F910F900FBEB5
:1009A0000F901F9018956091F4187091F518809130
:1009B000F6189091F71827E0660F771F881F991F88
:1009C0002A95D1F72EE330E040E050E00E94022B60
:1009D000CA01B9010895AF92BF92CF92DF92EF9210
:1009E000FF920F931F935B016C016091F41870915B
:1009F000F5188091F6189091F71847E0660F771F69
:100A0000881F991F4A95D1F72EE330E040E050E06F
:100A10000E94022B79018A016091F4187091F518F7
:100A20008091F6189091F71837E0660F771F881FAE
:100A3000991F3A95D1F72EE330E040E050E00E9454
:100A4000022B2E193F09400B510B2A153B054C0573
:100A50005D0510F31F910F91FF90EF90DF90CF9005
:100A6000BF90AF900895789484B7877F84BF109229
:100A7000F4181092F5181092F6181092F71884B521
:100A8000826084BD84B5816084BD85B5826085BD8A
:100A900085B5816085BDEEE6F0E080818160808370
:100AA000E1E8F0E0808182608083808181608083E2
:100AB000E0E8F0E0808181608083E1EBF0E080811C
:100AC00084608083E1E9F0E0808184608083E0EBF2
:100AD000F0E0808181608083E0E9F0E080818160E6
:100AE0008083E4E6F0E080818E7F8083ECE7F0E0B5
:100AF00080818F778083808180648083EAE7F0E063
:100B0000808184608083808182608083808180682E
:100B100080831092C1001092C90008959091EE0D4B
:100B2000982B9093EE0D80FF32C0809164008E7FF1
:100B30008093640080917C008F7780937C0080910B
:100B40007C00806480937C0080917A008460809334
:100B50007A0080917A00826080937A0080917A0096
:100B6000806880937A00809164008F77809364001E
:100B7000809164008B7F80936400809164008D7FFE
:100B800080936400809165008E7F80936500089556
:100B9000282F20959091EE0D92239093EE0D80FFDB
:100BA0001EC080917A008F7780937A0080916400D4
:100BB0008160809364008091640080688093640009
:100BC00080916400846080936400809164008260FE
:100BD0008093640080916500816080936500089532
:100BE0001F920F920FB60F920BB60F9211242F93F4
:100BF0003F934F935F936F937F938F939F93AF93A5
:100C0000BF93EF93FF93F89481E08093700DE0E63B
:100C1000F0E080818068808380818F7B808383E0A7
:100C200060E00E9445067894FF91EF91BF91AF91EB
:100C30009F918F917F916F915F914F913F912F91F4
:100C40000F900BBE0F900FBE0F901F901895282F7E
:100C500030E0C901895E9E4FFC0194912C513F4FB9
:100C6000F9018491882381F0E82FF0E0E453FF4FED
:100C7000E491F0E0662329F48081909589238083B4
:100C800008958081892B80830895482F50E0CA0100
:100C9000865B9E4FFC012491CA01895E9E4FFC0138
:100CA00094914C515F4FFA0134913323C1F12223C7
:100CB00031F1233021F4809180008F7705C02430FA
:100CC00031F4809180008F7D8093800018C02130A6
:100CD00019F484B58F7704C0223021F484B58F7D58
:100CE00084BD0DC0263021F48091B0008F7705C0FF
:100CF000273029F48091B0008F7D8093B000E32FDE
:100D0000F0E0EC52FF4FE491F0E0662329F480819B
:100D100090958923808308958081892B808308950D
:100D2000482F50E0CA01865B9E4FFC012491CA0106
:100D3000895E9E4FFC0194914C515F4FFA013491B2
:100D4000332319F420E030E035C0222331F1233081
:100D500021F4809180008F7705C0243031F4809198
:100D600080008F7D8093800018C0213019F484B5F5
:100D70008F7704C0223021F484B58F7D84BD0DC0EF
:100D8000263021F48091B0008F7705C0273029F4F8
:100D90008091B0008F7D8093B000E32FF0E0E452AB
:100DA000FF4FE491F0E0808120E030E0892311F0F2
:100DB00021E030E0C901089508950F931F938C013D
:100DC00005591E4FF801808191810E94F716045049
:100DD0001040F801819191918F010E940314F80154
:100DE000808191810E9426228DE160E00E94270689
:100DF0008EE160E00E94270680E260E00E94270604
:100E00008FE160E00E9427061F910F910895CF9314
:100E1000DF93EC018CE10E949006892B11F081E0B8
:100E200004C0CE010E94DD0680E0DF91CF910895DD
:100E3000CF92DF92EF92FF920F931F93CF93DF93A6
:100E4000EC017B016A01C559DE4F08811981CB563F
:100E5000D140CE010E9407078823D1F4CC59DE4F40
:100E600081E090E099838883C456D140CE016CEB39
:100E700073E00E94AD2C80E011C0C601B7010E9452
:100E8000A42C009729F4C8010E94FD1681E006C039
:100E9000C801B6010E940A17882379F7DF91CF9124
:100EA0001F910F91FF90EF90DF90CF900895DF9307
:100EB000CF93CDB7DEB7AB970FB6F894DEBF0FBEBA
:100EC000CDBFAE014F5F5F4F0E941807882311F41A
:100ED0008FEF05C089A182958F7080958170AB9648
:100EE0000FB6F894DEBF0FBECDBFCF91DF9108954E
:100EF000AF92BF92CF92DF92EF92FF920F931F9328
:100F0000DF93CF93CDB7DEB7AB970FB6F894DEBFC4
:100F10000FBECDBF8C016B0109591E4FF801A08097
:100F2000B18007561140C8010E940707F4E6EF2E72
:100F3000F1E0FF2EE00EF11E882359F481E490E0E9
:100F4000F70191838083C8016CEB73E00E94AD2CA4
:100F500016C0F701808191818F7B91838083C801C6
:100F6000B6018E010F5F1F4FA8010E94180788234A
:100F700049F4F7018081918180649183808320E02E
:100F800030E00CC0C501B8010E94531F9C010097BE
:100F900029F4C501B8010E94531F9C01C901AB96F9
:100FA0000FB6F894DEBF0FBECDBFCF91DF911F917A
:100FB0000F91FF90EF90DF90CF90BF90AF9008958A
:100FC0006F927F928F929F92AF92BF92CF92DF9259
:100FD000EF92FF920F931F93DF93CF93CDB7DEB7BE
:100FE0008C016B016DB67EB60E940707A4E6EA2E5F
:100FF000A1E0FA2EE00EF11E882379F481E490E05E
:10100000D7018D939C93C8016CEB73E00E94AD2CCB
:101010002FEF3FEF4FEF5FEF5BC0F70180819181D2
:101020008F7B91838083C801B6010E9478075C01A1
:10103000009739F500D000D000D0EDB7FEB731965B
:10104000ADB7BEB712961C930E93119786ED93E041
:1010500093838283D582C4820E94072DF701808109
:1010600091818064918380832FEF3FEF4FEF5FEF9B
:101070008DB79EB706960FB6F8949EBF0FBE8DBF74
:1010800027C00F92CDB6DEB60894C11CD11C460114
:10109000B60141E050E00E94AD15EE24FF24870127
:1010A0000BC00894E11CF11C011D111DC501B40108
:1010B00041E050E00E94AD15882329F0D6018C91C3
:1010C0008A30A1F7EECFC5010E94A715A8019701AC
:1010D000B901CA010FB6F8947EBE0FBE6DBECF91A6
:1010E000DF911F910F91FF90EF90DF90CF90BF9015
:1010F000AF909F908F907F906F9008956F927F92A6
:101100008F929F92BF92CF92DF92EF92FF920F93B6
:101110001F93DF93CF9300D000D0CDB7DEB77C0113
:101120004B013A0109831A832B833C830E940707F2
:10113000F701EC59FE4F882359F481E092E0918346
:101140008083C7016CEB73E00E94AD2C80E094C0FB
:10115000808191819D7F91838083C701B4010E942A
:1011600078076C010097F9F400D000D000D0EDB7FB
:10117000FEB73196ADB7BEB71296FC92EE921197BC
:1011800087EE93E093838283958284820E94072D69
:10119000BB24B3948DB79EB706960FB6F8949EBF46
:1011A0000FBE8DBF2BC0BE016F5F7F4F40E00E941E
:1011B0003D1D882311F0BB2421C000D000D000D0F9
:1011C000EDB7FEB73196ADB7BEB71296FC92EE9270
:1011D00011978AEF93E093838283958284820E94A1
:1011E000072D8DB79EB706960FB6F8949EBF0FBE1B
:1011F0008DBFC6010E94A715BB24B39486E69FE06D
:10120000B3010E94880BBB2049F58C01C601B301D4
:10121000A8010E94991D8017910709F43FC000D0D2
:1012200000D000D0EDB7FEB73196ADB7BEB712967D
:10123000FC92EE92119780E194E0938382839582F1
:1012400084820E94072D8DB79EB706960FB6F8943C
:101250009EBF0FBE8DBFC6010E94A715F701EC59B6
:10126000FE4F80819181926091838083BB24B394EF
:1012700080E0BB2009F481E00F900F900F900F9059
:10128000CF91DF911F910F91FF90EF90DF90CF9062
:10129000BF909F908F907F906F900895C6010E949D
:1012A000A715E6CF2F923F924F925F926F927F9257
:1012B0008F929F92AF92BF92CF92DF92EF92FF9266
:1012C0000F931F93DF93CF9300D000D0CDB7DEB73D
:1012D0006C015B0139014A0128012DB73EB73A8301
:1012E00029830E9407078823A1F484E691E0C80EB1
:1012F000D91E81E490E0D6018D939C93ECE9FEEF3A
:10130000CE0EDF1E8601C6016CEB73E00E94AD2C91
:10131000D3C00115110521F438EE432E33E0532ECE
:1013200024E6E22E21E0F22EEC0CFD1CD7018D917B
:101330009C9111978F798D939C93C601B5010E9462
:1013400078071C01009721F5860100D000D000D05D
:10135000EDB7FEB73196ADB7BEB71196CC92D1823C
:1013600086ED93E093838283B582A4820E94072D49
:10137000F701808191818064918380832DB73EB78E
:101380002A5F3F4F0FB6F8943EBF0FBE2DBF94C0EB
:101390000F92ADB6BEB60894A11CB11CAB82BC8244
:1013A000B50141E050E00E94AD1561147104810463
:1013B000910481F4EE24FF2487013FC00894610862
:1013C000710881089108C1016B817C8141E050E086
:1013D0000E94AD15882341F4D5018C91F6018083DC
:1013E0008C918A3071F40AC06114710481049104F3
:1013F00099F3D5018C918A3031F7E0CF08944108F8
:101400005108C1016B817C8141E050E00E94AD1523
:1014100091E0E92EF12C012D112D0FC00894410807
:1014200051080894E11CF11C011D111DC1016B81C3
:101430007C8141E050E00E94AD158823A1F0411469
:10144000510489F0BFEFEB16F1040105110509F015
:10145000A8F4F601EE0DFF1DD5018C9180838C91CF
:101460008A30F9F6DBCFBFEFEB16F1040105110569
:1014700028F4F601EE0DFF1D10821AC0ECEFF0E02B
:10148000CE0EDF1E8EE3D6018D93FD0181938AE09F
:10149000DF018D936D011C92E1E0FFEFCE0EDF1EA8
:1014A000F601EC59FE4F80819181806291838083A7
:1014B000C1010E94A7158601C80129813A810FB692
:1014C000F8943EBF0FBE2DBF0F900F900F900F905E
:1014D000CF91DF911F910F91FF90EF90DF90CF9010
:1014E000BF90AF909F908F907F906F905F904F9044
:1014F0003F902F9008958BE161E00E9427068CE1D8
:1015000060E00E9427060895CF92DF92EF92FF924B
:101510000F931F93DF93CF93CDB7DEB7AB970FB683
:10152000F894DEBF0FBECDBF7C010E940707882361
:1015300061F424E631E0E20EF31E81E090E0F70171
:10154000918380832CEB33E083C00E948C25882319
:1015500061F424E631E0E20EF31E82E090E0F70150
:101560009183808325ED34E073C08EE594E26CE1D5
:1015700075E24DE653E228E236E200E00E942E22B8
:1015800019E6C12E11E0D12ECE0CDF1CF60191839D
:101590008083892BE1F48EE594E26CE175E24DE6FF
:1015A00053E228E236E20FEF0E942E22F6019183E9
:1015B0008083892B61F424E631E0E20EF31E84E09F
:1015C00090E0F7019183808322EF34E041C0F7017E
:1015D000E759FE4F808191810E941A19B7E6CB2E00
:1015E000B1E0DB2ECE0CDF1CF601918380830097E7
:1015F00061F424E631E0E20EF31E88E090E0F701AA
:10160000918380832BE035E023C065E275E08E0195
:101610000F5F1F4FA8010E94891FF60180819181F1
:10162000B8010E94161F2BE631E0E20EF31EF7010F
:10163000918380833797892B39F480E190E09183FF
:10164000808327E235E004C0118210822FE335E069
:10165000C901AB960FB6F894DEBF0FBECDBFCF91D8
:10166000DF911F910F91FF90EF90DF90CF90089541
:10167000FC01EA59FE4F6083613019F0623081F459
:101680000BC08BE161E00E9445066AE070E080E0FB
:1016900090E00E94EB0408958BE160E00E94450613
:1016A00008950F931F938C010E94DD06C80162E02C
:1016B0000E94380B1F910F9108950F931F938C0177
:1016C0000E947B0AC80161E00E94380BC8010E9499
:1016D000840A1F910F910895DF93CF9300D0CDB767
:1016E000DEB720917C1B30917D1BCE010196211528
:1016F000310519F480589B4102C0821B930B9A83D9
:10170000898389819A810F900F90CF91DF910895FD
:10171000FB0120E030E002C02F5F3F4F8191882322
:10172000D9F7C901089508958FE261E00E94270664
:1017300084E261E00E94270685E261E00E942706BC
:101740008FE261E00E94450684E261E00E94450666
:1017500085E261E00E94450608950F931F93162FBE
:10176000042F8FE261E00E94270684E261E00E947C
:10177000270685E261E00E9427068FE261E00E9471
:10178000450684E2612F0E94450685E2602F0E9493
:1017900045061F910F9108951092A61008950F937A
:1017A0001F938C018DE0F80160810E9478278AE008
:1017B000F80160810E9478271F910F910895EF92A0
:1017C000FF920F931F93CF93DF93EC017A018B016C
:1017D00077FF0CC08DE268810E94782710950095F4
:1017E000F094E094E11CF11C011D111DC801B7012A
:1017F0002AE030E040E050E008810E949F27DF911E
:10180000CF911F910F91FF90EF9008950F931F9329
:101810008C01AB01662757FD6095762F0E94DF0B88
:10182000C8010E94CF0B1F910F9108950F931F9332
:10183000FC01DA018B012115310529F4842F608127
:101840000E9478270EC02A30310519F40E94DF0B60
:1018500008C030E040E050E0BD01C80100810E94B6
:101860009F271F910F9108950F931F938C010E9442
:10187000160CC8010E94CF0B1F910F910895FC0117
:10188000CB0160810E94892708950F931F938C01DB
:10189000CB01F80160810E948927C8010E94CF0B0B
:1018A0001F910F910895FC0160E076E980E090E0DF
:1018B00040810E945F28089580E091EE9093791115
:1018C0008093781110927A1181E080937B1180933C
:1018D000A71008952F923F924F925F926F927F923E
:1018E0008F929F92AF92BF92CF92DF92EF92FF9230
:1018F0000F931F93DF93CF9300D000D0CDB7DEB707
:101900005C011B012A0149013C01FC0180E090E0DF
:1019100020E222830196319684369105D1F7CC24BA
:10192000DD2403C00894C11CD11CF101EC0DFD1D88
:1019300080818823B9F708C068EE73E080E090E00A
:101940000E94EB040150104010161106ACF37CC04D
:10195000D7018C910E948326892B09F068C08414DA
:1019600095040CF064C00894811C911C68EE73E02F
:1019700080E090E00E94EB04EBCFF70180810E94B1
:10198000A726D80111968C9364E170E080E090E086
:101990000E94EB04EB81FC813196FC83EB830F5FAB
:1019A0001F4F2B813C812C153D053CF310E0D701E6
:1019B0008C910E948326892BD1F1D30120E030E065
:1019C00010C012968C9112971196F101E20FF31F3D
:1019D0009081891721F0F3011C821B820FC02F5FB9
:1019E0003F4F2C153D056CF381E03EC02B813C81BF
:1019F0002F5F3F4F3C832B838281818331968B8184
:101A00009C81A981BA818A179B0784F3F7018081A1
:101A10000E94A7262B813C812A0D3B1DD9011296DD
:101A20008C9364E170E080E090E00E94EB04F701A9
:101A300080810E948326892B91F0112309F4B7CF6E
:101A400083011C821B82ABCF11E054EDE52EF12CFB
:101A5000EA0CFB1C9601215030403A832983841400
:101A600095040CF475CF80E00F900F900F900F90BD
:101A7000CF91DF911F910F91FF90EF90DF90CF906A
:101A8000BF90AF909F908F907F906F905F904F909E
:101A90003F902F9008952F923F924F925F926F92B6
:101AA0007F928F929F92BF92CF92DF92EF92FF929E
:101AB0000F931F93DF93CF93CDB7DEB72A970FB65F
:101AC000F894DEBF0FBECDBF7C01AAE0BA2E6E0136
:101AD0000894C11CD11CFBE72F2EF5E03F2EEDE052
:101AE0004E2E512C7AE0672E712C64ED862E912CAF
:101AF000880E991E2DB73EB72A5030400FB6F89485
:101B00003EBF0FBE2DBFEDB7FEB73196ADB7BEB726
:101B10001296DC92CE92119724E735E0338322832C
:101B20003582248257824682718660860E94072D04
:101B30008DB79EB70A960FB6F8949EBF0FBE8DBFA5
:101B4000C601D4016C910E948927C70164E875E041
:101B500041E050E020E030E000E010E00E946A0C3C
:101B6000813029F4E7E6F3E0EE0EFF1E16C0C60151
:101B7000F40160810E948927C7016FE875E041E0A8
:101B800050E020E030E000E010E00E946A0C81307C
:101B900041F427E633E0E20EF31ED7018C9381E097
:101BA00010C064E670E080E090E00E94EB04BA941C
:101BB00009F0A0CFE7E6F3E0EE0EFF1ED7011C927E
:101BC00080E02A960FB6F894DEBF0FBECDBFCF914E
:101BD000DF911F910F91FF90EF90DF90CF90BF901A
:101BE0009F908F907F906F905F904F903F902F903D
:101BF00008952F923F924F925F926F927F928F92B1
:101C00009F92AF92BF92CF92DF92EF92FF920F938B
:101C10001F93DF93CF93CDB7DEB729970FB6F89414
:101C2000DEBF0FBECDBF6C017A8369831A013C838E
:101C30002B8328018D836D2CFC0180E090E020E255
:101C400022830196319684369105D1F78824992410
:101C500003C00894811C911CE981FA81E80DF91DEB
:101C600080818823B1F7AA24BB2403C00894A11C57
:101C7000B11CF101EA0DFB1D80818823B9F709C071
:101C800068EE73E080E090E00E94EB040894E108C5
:101C9000F1081E141F04A4F300E010E077247394ED
:101CA000B4EDEB2EF12CEC0CFD1CE0C0D7018C91B7
:101CB0000E948326892B09F0D2C0EB81FC814E164D
:101CC0005F060CF0CCC00894411C511C68EE73E018
:101CD00080E090E00E94EB04E9CF772009F445C052
:101CE0008A149B0444F48D81962D9C013F832E839E
:101CF00000E010E030C08D81962D9C013F832E8343
:101D000000E010E00FC0D7018C910E94A726EE8161
:101D1000FF81818364E170E080E090E00E94EB0449
:101D20000F5F1F4F4E815F814F5F5F4F5F834E8319
:101D30000A151B0544F329C0D7018C910E94A726E0
:101D4000EE81FF81818364E170E080E090E00E9499
:101D5000EB040F5F1F4F4E815F814F5F5F4F5F83CB
:101D60004E830815190544F310C0D7018C910E94C9
:101D70008326892B51F0F70180810E94A726F60166
:101D8000E00FF11F82830F5F1F4F8D81962D9C0105
:101D9000D90120E030E02BC012969C911297E98186
:101DA000FA818081981701F5F987E8872E5F3F4F08
:101DB000B601620F731F2250304040E00CC0FB019F
:101DC0008191BF01488559854F5F5F4F598748878B
:101DD00041E0891749F4E885F9859081992379F7DD
:101DE000442311F081E049C02F5F3F4F1196201727
:101DF000310794F28D81962D9C01D90120E030E0CD
:101E00002AC012969C911297F1018081981701F5D2
:101E1000398628862E5F3F4FB601620F731F22500E
:101E2000304040E00CC0FB018191BF0148855985DD
:101E30004F5F5F4F5987488741E0891749F4E8852C
:101E4000F9859081992379F7442311F082E015C038
:101E50002F5F3F4F119677242017310794F2D70157
:101E60008C910E948326892B09F037CFEB81FC816E
:101E70004E165F060CF41ACF80E029960FB6F89440
:101E8000DEBF0FBECDBFCF91DF911F910F91FF90AD
:101E9000EF90DF90CF90BF90AF909F908F907F900A
:101EA0006F905F904F903F902F9008954F925F9268
:101EB0006F927F928F929F92AF92BF92CF92DF925A
:101EC000EF92FF920F931F93CF93DF935C01390141
:101ED0002801470112E0E12EF12CE80EF91E8DB722
:101EE0009EB708970FB6F8949EBF0FBE8DBFEDB793
:101EF000FEB73196ADB7BEB71296FC92EE9211972F
:101F00008AE995E09383828375836483578346834C
:101F10000E94072DEDB7FEB738960FB6F894FEBFB6
:101F20000FBEEDBF85010C521F4FD8018C910E944E
:101F3000E226C0E0D0E00EC0209729F4C701F801E6
:101F400060810E9489276CED75E080E090E00E943E
:101F5000EB042196D8018C910E948326892B39F4B9
:101F6000C815D90524F4C114D10431F7E7CFC50150
:101F7000B301A20194018E01EE24FF240E94F90D09
:101F8000DF91CF911F910F91FF90EF90DF90CF9055
:101F9000BF90AF909F908F907F906F905F904F9089
:101FA0000895CF92DF92EF92FF920F931F936701F4
:101FB000EAE0EE2EF12C0E94560F1F910F91FF9038
:101FC000EF90DF90CF9008958F929F92AF92BF9243
:101FD000CF92DF92EF92FF920F931F936C015A0101
:101FE000490178018C010E5F1F4F00D000D000D056
:101FF000EDB7FEB73196ADB7BEB712961C930E93F0
:10200000119782EA95E093838283758364830E94AB
:10201000072D8DB79EB706960FB6F8949EBF0FBEDC
:102020008DBFC601B80147EA55E0950184010E94C1
:10203000D10F1F910F91FF90EF90DF90CF90BF9045
:10204000AF909F908F900895EF92FF920F931F9300
:10205000CF93DF937C01EC01C054DF4F88819981DD
:10206000877F99838883C7016AEA75E042EB55E070
:1020700025EB35E001E010E00E94E40F882311F029
:10208000823029F48881998188609983888380ECE3
:1020900090E0E80EF91EF70180819181A3E096950A
:1020A0008795AA95E1F780958170DF91CF911F9177
:1020B0000F91FF90EF9008950F931F9300E010E0B1
:1020C0000E94E40F1F910F9108954F925F926F92BB
:1020D0007F928F929F92AF92BF92CF92DF92EF92B8
:1020E000FF920F931F934C013B012901F6E6AF2E9F
:1020F000B12CA80EB91E00D000D000D0EDB7FEB7AD
:102100003196ADB7BEB71296BC92AE9211978FE9D9
:1021100095E093838283558344830E94072D8DB776
:102120009EB706960FB6F8949EBF0FBE8DBFC40132
:10213000B301A50192010E94560F1F910F91FF90CC
:10214000EF90DF90CF90BF90AF909F908F907F9057
:102150006F905F904F9008956F927F928F929F92B1
:10216000AF92BF92CF92DF92EF92FF920F931F93A5
:10217000CF93DF936C01390158014701A2E0EA2EA9
:10218000F12CE80EF91E8DB79EB708970FB6F8949C
:102190009EBF0FBE8DBFEDB7FEB73196ADB7BEB7D0
:1021A0001296FC92EE9211978AE995E093838283CE
:1021B00075836483578346830E94072DEDB7FEB76E
:1021C00038960FB6F894FEBF0FBEEDBF86010C52D5
:1021D0001F4FD8018C910E94E226C0E0D0E00EC0D3
:1021E000209729F4C701F80160810E9489276CEDCE
:1021F00075E080E090E00E94EB042196D8018C917C
:102200000E948326892B39F4CA15DB0524F4811436
:10221000910431F7E7CFC601B301A5019E0100E0AB
:1022200010E00E946A0CDF91CF911F910F91FF90F7
:10223000EF90DF90CF90BF90AF909F908F907F9066
:102240006F900895EF92FF920F931F9378010AE029
:1022500010E00E94AC101F910F91FF90EF90089535
:10226000AF92BF92CF92DF92EF92FF920F931F93A4
:102270006C015A01890182E0E82EF12CEC0CFD1C66
:1022800000D000D000D0EDB7FEB73196ADB7BEB7E5
:102290001296FC92EE92119782EA95E093838283E4
:1022A000758364830E94072D8DB79EB706960FB67F
:1022B000F8949EBF0FBE8DBFC601B70147EA55E037
:1022C00095010E9422111F910F91FF90EF90DF90D6
:1022D000CF90BF90AF9008950F931F93CF93DF934C
:1022E0008C01EC01C054DF4F888199818F7D9983E7
:1022F0008883C80163ED78E042EB55E021E030E0EF
:102300000E943011882311F0823029F4888199814C
:1023100080629983888300541F4FF80180819181E6
:1023200025E0969587952A95E1F780958170DF9154
:10233000CF911F910F91089520E030E00E9430115D
:102340000895CF93DF93EC01C054DF4F288139818A
:102350002F7E3983288365EE79E042EB55E00E94B9
:102360009C11282F882329F088819981223041F4FB
:1023700002C08881998180619983888380E007C049
:1023800024E0969587952A95E1F780958170DF91F5
:10239000CF910895AF92BF92CF92DF92EF92FF92CA
:1023A0000F931F93CF93DF936C015B017A01EC01D4
:1023B000C054DF4F888199818F7E9983888389E11A
:1023C00090E061E070E00E94452B8C01009711F4D1
:1023D0008FEF63C08DB79EB70C970FB6F8949EBF72
:1023E0000FBE8DBFEDB7FEB73196ADB7BEB7129633
:1023F0001C930E93119781EC95E0938382838DEE6D
:1024000099E09583848382E290E097838683F186C6
:10241000E086938782870E94072D8DB79EB70C9622
:102420000FB6F8949EBF0FBE8DBFC6010E94A111CA
:10243000C601B80140EA56E00E949C11F82EC8017E
:102440000E940E2CFF20D9F092E0F916C1F0C601CF
:10245000B5014AE150E022EB35E004EF19E0F4E188
:10246000EF2EF12CE1E0CE2ED12C0E946510282F0A
:10247000882329F088819981223041F402C0888123
:10248000998180619983888380E007C034E09695C4
:1024900087953A95E1F780958170DF91CF911F91F3
:1024A0000F91FF90EF90DF90CF90BF90AF90089585
:1024B000FC01EC52FF4F80810E94412886E69FE09C
:1024C00060E040E00E94AD0B0895EF92FF920F9301
:1024D0001F938C0191EDE92EF12CE00EF11E80E0AE
:1024E00091EEF7019183808386E69FE00E94940B32
:1024F000F7016081718180E090E00C521F4FF8017C
:1025000040810E945F281F910F91FF90EF900895E6
:102510000F931F93CF93DF93EC018C010C521F4F4D
:102520008AE89CE0F80160810E9489278DE0F8012B
:1025300060810E9478278AE0F80160810E947827F4
:102540006AE070E080E090E00E94EB04CE0162EB74
:1025500075E042E050E020E030E000E010E00E9452
:102560006A0C813011F4188202C081E08883DF9107
:10257000CF911F910F910895FF920F931F93CF93C7
:10258000DF93EC01F62E8C0100541F4FF80180817F
:1025900091818E7F91838083F2E06F1709F45FC091
:1025A000F61730F0662389F081E0681761F447C0C0
:1025B000E4E06E1709F46CC06E1708F458C0F5E03B
:1025C0006F1709F481C020E09BC0CE010E948812E1
:1025D0008AE261E00E9427068AE261E00E944506E5
:1025E00088818130A1F460ED77E080E090E00E9486
:1025F000EB048AE260E00E94450664EF71E080E04F
:1026000090E00E94EB0403C0CE010E9488128881F2
:102610008130D1F3CE016DE87CE042EB55E025EB53
:1026200035E00E945C10282F8130A9F0813018F02D
:10263000823009F065C0FE01E054FF4F3FC0CE017B
:102640006DE87CE042EB55E025EB35E00E945C1044
:10265000282F813049F5CD52DF4F288351C0CE015C
:1026600065E97CE042EB55E025EB35E018C0CE0192
:102670006DE97CE042EB55E025EB35E00E945C1013
:10268000282F813089F4CD52DF4F83E0888338C012
:10269000CE0165EA7CE042EB55E02BEF35E00E948D
:1026A0005C10282F813029F0213038F0223041F59C
:1026B00004C0CD52DF4FF88223C0F80180819181A0
:1026C0008160918380831CC08AE261E00E942706BA
:1026D0008AE261E00E94450660ED77E080E090E0EC
:1026E0000E94EB048AE260E00E94450664E670E026
:1026F00080E090E00E94EB04CD52DF4FF88221E0B1
:10270000822FDF91CF911F910F91FF9008950F932A
:102710001F938C0165E00E94BC12C8010E945812F0
:1027200080912114823051F486E594E10E94F113E6
:102730008FE094E160E141E00E94C5131F910F9189
:102740000895CF93DF93EC0161E070E080E090E0CA
:102750000E94CC2162E070E080E090E00E94CC21F9
:1027600080912114882331F48FE094E161E041E00D
:102770000E94C513CE010E946512CE0160E00E9446
:10278000BC12DF91CF91089508950F931F93CF93BB
:10279000DF93EC01042F6FA380E361E00E94270622
:1027A0001FA1113019F0103199F40DC080E361E0E0
:1027B0000E944506013019F482E08A8B09C000238B
:1027C00039F41A8B05C080E360E00E9445061A8A3E
:1027D000DF91CF911F910F9108950C9400F008950F
:1027E000089589E261E00E94270688E261E00E9484
:1027F000270688E898E10E941E290895109258142F
:1028000010925A140895FC01009711F01182108261
:102810000895DF93CF9300D0CDB7DEB7DC010097EA
:1028200081F16230710568F1ED91FC911197660FAD
:10283000771F80E090E016962D913D914D915C912F
:102840001997620F731F841F951F0190F081E02D6F
:10285000AE014F5F5F4F22E030E00995882389F099
:1028600029813A812115310571F08FEF273F380713
:1028700041F0C9014096079720F08FEF283F3807B5
:1028800010F020E030E0C9010F900F90CF91DF9160
:1028900008954F925F926F927F928F929F92AF9224
:1028A000BF92CF92DF92EF92FF920F931F93DF932D
:1028B000CF9300D0CDB7DEB75C01009709F449C0D3
:1028C0006230710508F445C0DC0116966D907D906C
:1028D0008D909C9019972E010894411C511C660FF5
:1028E000771F7B0100E010E0E60CF71C081D191DA6
:1028F000D501ED91FC910190F081E02DC801B70167
:10290000A20122E030E00995882319F1C980DA801C
:10291000C114D10401F1C60140960897D0F0B8EF78
:10292000CB16BFEFDB0610F0CC24DD241A8219820F
:10293000D501ED91FC910480F581E02DC801B7012E
:10294000A20122E030E00995B601C114D10439F6A4
:1029500002C080E001C081E00F900F90CF91DF9125
:102960001F910F91FF90EF90DF90CF90BF90AF90AD
:102970009F908F907F906F905F904F9008952F92CF
:102980003F924F925F926F927F928F929F92AF92FF
:10299000BF92CF92DF92EF92FF920F931F93DF933C
:1029A000CF93CDB7DEB72C970FB6F894DEBF0FBE2E
:1029B000CDBF4C011B01CA018114910409F4ABC0C5
:1029C000D401ED91FC911197208131813C872B87B7
:1029D000448155815A87498716962D913D914D9195
:1029E0005C9119972D833E834F8358875A96AD90FB
:1029F000BC905B971A962D913D914D915C911D97DE
:102A000056954795379527953C832B835B961C926B
:102A10001E925A973C012901CC24DD2454C0B2E017
:102A2000AB16B10428F0EB81FC81AE16BF0618F09E
:102A300042E0A42EB12CC501880F991F7C0100E053
:102A400010E02D813E814F815885E20EF31E041F58
:102A5000151FC801B701AE014F5F5F4F22E030E0A4
:102A6000AB85BC85FD010995882309F454C0898193
:102A70009A81892B11F56114710421F4F401B38E4C
:102A8000A28E27C0C114D10429F42FEF3FEF3A835F
:102A9000298302C0DA82C982C801B701AE014F5F43
:102AA0005F4F22E030E0A985BA85FD0109958823B2
:102AB00071F1089461087108650108944108510892
:102AC0000894A11CB11C4114510409F0A8CF672837
:102AD000F1F4B2E02B16310400F1C982DA82220C43
:102AE000331CB10180E090E02D813E814F815885FB
:102AF000620F731F841F951FAE014F5F5F4F22E06F
:102B000030E0A985BA85FD010995882331F4C40117
:102B1000B6010E944914CC24DD24C6012C960FB6C0
:102B2000F894DEBF0FBECDBFCF91DF911F910F9103
:102B3000FF90EF90DF90CF90BF90AF909F908F90DD
:102B40007F906F905F904F903F902F900895FC0181
:102B5000009711F01182108208952F923F924F92A8
:102B60005F926F927F928F929F92AF92BF92CF921D
:102B7000DF92EF92FF920F931F93DF93CF93CDB726
:102B8000DEB72A970FB6F894DEBF0FBECDBF2C017B
:102B90007A8369835C834B83009709F409C1672BAF
:102BA00009F406C1452B09F403C1DC019D96AD90E3
:102BB000BD90CD90DC90D09795962D913D914D9103
:102BC0005C919897EB81FC81CF01A0E0B0E08A0D89
:102BD0009B1DAC1DBD1D281739074A075B0740F434
:102BE000B9016A197B097C836B83672B09F4E3C005
:102BF000D201ED91FC91119720883188D196ED9109
:102C0000FC91D297FA87E987EF2BF1F593962D91F6
:102C10003C9194973A872987232B39F4A114B10466
:102C2000C104D10409F4C7C0C3C0A114B104C104D4
:102C3000D10451F186017501310188249924662758
:102C40007727CB0166197709880999096D837E83F7
:102C50008F83988714C0D2018D919C9169857A8564
:102C60000E9409149A878987892B09F4A1C06D8174
:102C70007E818F819885E60EF71E081F191FE614C6
:102C8000F7040805190538F7089421083108A2202F
:102C9000B3200894211C311CCB80DC80D201ED9044
:102CA000FC90E114F10409F1E985FA85E230F105BF
:102CB000E0F03297BF0180E090E03296FA87E98732
:102CC000D70150962D913C91519740E050E00E94E1
:102CD000B02A9B01AC01F70182899389A489B58947
:102CE000280F391F4A1F5B1F04C020E030E040E07E
:102CF00050E081010A191B09C016D10608F48601AB
:102D0000D701ED91FC91C501A0E0B0E0280F391F7B
:102D10004A1F5B1F0190F081E02DCA01B901498172
:102D20005A8198010995882341F1C01AD10AC80136
:102D3000A0E0B0E0F20125A536A547A550A9280FCF
:102D4000391F4A1F5B1FD2019D962D933D934D93D2
:102D50005C93D097C8018A0D9B1D82159305A0F046
:102D60008D919C9169857A850E9409149A8789873B
:102D7000892B41F4F20112AA11AA4B815C814C19F2
:102D80005D091BC0AA24BB24E985FA85D201D2962D
:102D9000FC93EE93D197C114D10439F029813A8183
:102DA000200F311F3A83298379CF4B815C8105C085
:102DB0004FEF5FEF02C040E050E0CA012A960FB625
:102DC000F894DEBF0FBECDBFCF91DF911F910F9161
:102DD000FF90EF90DF90CF90BF90AF909F908F903B
:102DE0007F906F905F904F903F902F900895FC01DF
:102DF000009711F0118210820895FC01009711F4E0
:102E000080E0089583A194A196A785A710AA17A68C
:102E100081E008952F923F924F925F926F927F923E
:102E20008F929F92AF92BF92CF92DF92EF92FF92DA
:102E30000F931F93DF93CF93CDB7DEB7AA970FB64B
:102E4000F894DEBF0FBECDBF4C01DB01009709F443
:102E5000B5C06115710509F4B1C0FC0160807180D5
:102E6000F30120883188FC01A5A4B6A427A530A9C8
:102E70002215330508F07EC0AE014F5F5F4F86E03C
:102E8000FA0111928A95E9F78BE2FB0111928A957A
:102E9000E9F7A114B10409F074C0F3012288338862
:102EA00086899789281A390A6CC0720100E010E0FF
:102EB000A114B10441F4D30156966D917D918D9189
:102EC0009C91599724C061147104D9F0B2E0AB16FB
:102ED000B104B8F0F3012089318940E050E06FA1DE
:102EE00078A589A59AA50E94B02A9B01AC01F3019F
:102EF00082899389A489B589280F391F4A1F5B1FCE
:102F000004C020E030E040E050E0CA01B9016E0D9D
:102F10007F1D801F911F1C821B82D301ED91FC91AC
:102F20008101041915090280F381E02DAE01495F8A
:102F30005F4F20E230E0A8EFEA2EA7E1FA2E6E0103
:102F40000894C11CD11C09958823C1F18B819C81F7
:102F5000480E591E4214530430F1C301B5010E94BA
:102F600009145C0120E030E0009769F48E81882329
:102F7000F1F4F40183A194A196A785A710AA17A63E
:102F80001DC0BA83A98329018EEF9FEFA80EB91E39
:102F9000C501A0E0B0E08FA398A7A9A7BAA7A2E0B7
:102FA000B0E0AA0EBB1E8E81882309F47ECFF40107
:102FB000B6A6A5A650AA47A68E8101C080E0AA9613
:102FC0000FB6F894DEBF0FBECDBFCF91DF911F913A
:102FD0000F91FF90EF90DF90CF90BF90AF909F90B8
:102FE0008F907F906F905F904F903F902F900895BB
:102FF000CF92DF92EF92FF920F931F93DF93CF93C5
:10300000CDB7DEB72D970FB6F894DEBF0FBECDBF9C
:10301000DC016A017B018901F901408151818281D2
:1030200093818096938382839C91953E11F099239E
:1030300019F4F8011482EEC01B968C911B978F3007
:1030400009F053C0F9019481992329F01D968C91C0
:103050001D97981779F08BE2FA0111928A95E9F79A
:103060001D968C911D97F8018483FA01C7A2D0A602
:10307000E1A6F2A68C9190E08F73907001972DE0FD
:1030800030E0829FB001839F700D929F700D1124DC
:103090009E012F5F3F4F01E71DE08DE0F801019099
:1030A0008F01F90101929F018150C1F7460F571F0F
:1030B00020E030E08E010F5F1F4F11C0F801E20FDA
:1030C000F31F8081FD01E80FF11D8081FA018193DA
:1030D000AF012F5F3F4F2D30310509F49BC0C9016F
:1030E000860F971F4F9750F395C0FA018081882370
:1030F000B9F0F901648121E030E0892F8695979538
:1031000099279795982BFD01E20FF31F8081980F67
:103110002F5F3F4F2B30310581F7691709F460C0ED
:103120008BE2FA0111928A95E9F7FA01C7A2D0A6BB
:10313000E1A6F2A67D019A016D0160E0F6019081A1
:103140009032C1F0F90190831C968C911C9783FFFB
:1031500009C0F6018081813428F08B3518F4905E27
:10316000F90190836F5F0894C11CD11C2F5F3F4F02
:10317000683021F7FA018081853011F485EE808373
:1031800018968C911897803239F1FA01E60FF11DEB
:103190008EE28083262F2F5F362F3C5FF7019085CC
:1031A0009032C9F0BA01620F711DFB0190831C9629
:1031B0008C911C9784FF09C0F7018085813428F029
:1031C0008B3518F4905EFB0190832F5F0894E11C0F
:1031D000F11C231719F7622FFA01E60FF11D108277
:1031E0001B968C911B97FA0180A35A968D919C9106
:1031F0005B9792A381A35C968D919D910D90BC915C
:10320000A02D83A394A3A5A3B6A381E0F801858391
:1032100080E001C081E02D960FB6F894DEBF0FBEAE
:10322000CDBFCF91DF911F910F91FF90EF90DF9075
:10323000CF9008952F923F924F925F926F927F921C
:103240008F929F92AF92BF92CF92DF92EF92FF92B6
:103250000F931F93DF93CF93CDB7DEB7A8970FB629
:10326000F894DEBF0FBECDBF98A78FA3009709F4D7
:103270005CC1DC0114968D919C911597892B09F402
:1032800054C116968D919C911797892B09F44DC1C5
:1032900068C1ECE5F4E18CE1DF011D928A95E9F764
:1032A000EFA1F8A5F0935D14E0935C1421843284BF
:1032B0004384548459E0220C331C441C551C5A95F9
:1032C000D1F7C201B101655F7F4F8F4F9F4F0190D2
:1032D000F081E02DAE014F5F5F4F29E130E00995AD
:1032E000882309F445C1E981FA81FBA3EAA32C8173
:1032F0003D81FB81FCA34E818F8198859EA38DA388
:10330000E985FA856C857D856E887F88888C998CA7
:10331000611471048104910431F4309709F428C1D7
:103320003F01882499246115710509F421C1C9015F
:10333000A0E0B0E08E8F9F8FA8A3B9A380E090E0BB
:10334000242F30E040E050E00E94B02A6A8F7B8F4B
:103350008C8F9D8F840173012E8D3F8D48A159A1C3
:10336000E21AF30A040B150BE61AF70A080B190BFD
:103370008AA19BA101972DA13EA145E0220F331FF9
:103380004A95E1F7820F931F6AA17BA10E94DB2A75
:1033900080E090E0E61AF70A080B190B8CA1282FA1
:1033A00030E040E050E0C801B7010E94022B7901F3
:1033B0008A0195EFE9169FE0F90690E0090790E091
:1033C000190708F4D5C0A5EFEA16AFEFFA06A0E09A
:1033D0000A07A0E01A0728F486E0EFA1F8A5808785
:1033E00005C08BE0AFA1B8A518968C9388E1EEE5F7
:1033F000F4E1DF011D928A95E9F7EAA1FBA15F01E3
:10340000CC24DD24C401B301A60195010E94B02A99
:1034100060935E1470935F148093601490936114B2
:10342000C601B5012E8D3F8D48A159A10E94B02A39
:10343000260E371E481E591E2092621430926314C5
:103440004092641450926514AFA1B8A518968C915F
:10345000863029F064E070E080E090E004C062E033
:1034600070E080E090E022E030E040E050E0E20EEA
:10347000F31E041F151FA80197010E94B02A609334
:1034800066147093671480936814909369144AA12A
:103490005BA150936B1440936A145CA1852F90E05C
:1034A000DC01EAA1FBA1AE9FC001AF9F900DBE9FC2
:1034B000900D112490936D1480936C146A8D7B8D04
:1034C0008C8D9D8DA60195010E94B02A20916214D9
:1034D000309163144091641450916514620F731F0E
:1034E000841F951F609372147093731480937414E7
:1034F00090937514ADA1BEA19D0140E050E0B5E0F0
:10350000220F331F441F551FBA95D1F7620F731F47
:10351000841F951F60936E1470936F1480937014C2
:10352000909371142CE534E102C020E030E0C90131
:10353000A8960FB6F894DEBF0FBECDBFCF91DF9136
:103540001F910F91FF90EF90DF90CF90BF90AF90C1
:103550009F908F907F906F905F904F903F902F90B3
:10356000089580915C1490915D14892BF1F691CEB1
:1035700010925D1410925C14D8CF2F923F924F920C
:103580005F926F927F928F929F92AF92BF92CF92F3
:10359000DF92EF92FF920F931F93DF93CF93CDB7FC
:1035A000DEB7A0970FB6F894DEBF0FBECDBFFC010B
:1035B0008B01009709F426C16115710509F422C138
:1035C0000190F081E02D24803580DB019796AD904D
:1035D000BD90CD90DC909A97E62E912EFB01019044
:1035E0000020E9F73197FE2EF61A8F2D90E00C9609
:1035F0006DE070E00E94EF2A762ECE01019660E227
:1036000070E04BE050E00E94922CC8016EE270E046
:103610000E94C22CFC010097E1F09C012F5F3F4FFC
:1036200081818823B1F0D9010D900020E9F711972D
:10363000A21BB30B8A2F8095F80EBE01675F7F4FE8
:103640004A2FA43008F043E0CB01B90150E00E94BA
:10365000892CCE010196B8E0BF1588F06E2D792D2A
:103660004F2D50E00E94892CF80180818E3231F577
:1036700081818E3209F482818823F9F01FC0DC0138
:103680008E2D992D9C01F90188E001900D928150B9
:10369000E1F7D80191968C91982F92959F70803A7E
:1036A00010F4905D01C09F598F708A3010F4805DD6
:1036B00001C08F599F83888701C077248981853E07
:1036C00011F485E08983FCE08F2E912C8C0E9D1ED9
:1036D00085E1F40111928A95E9F7D80190968C91D1
:1036E00090978C8791968D919C9192979C8F8B8FC0
:1036F00093968D919D910D90BC91A02D8D8F9E8F55
:10370000AF8FB8A3672D70E0E5E0660F771FEA95ED
:10371000E1F780E090E06A0D7B1D8C1D9D1DAE01E0
:103720004F5F5F4F20E230E0F1010995882309F4F3
:1037300069C0E980FE01329694018E2D8695E7944A
:10374000EE24E794E82A8191E80EE217F307A9F73F
:10375000F72C4E010894811C911C7DE0472E512CC2
:103760006FE0662E4AC0C4016FEF70E040E250E0A7
:103770000E94922C8F2D90E00197849DD001859D11
:10378000B00D949DB00D1124A00FB11F91E0F40174
:10379000E90FF11D8C918083892F8F5FF401E80F71
:1037A000F11D10829E5F9B3019F09A3121F402C006
:1037B0009EE001C09CE18C91882321F09F3110F4A0
:1037C0001196E5CFF982F71419F48F2D806489835F
:1037D0006C86EE861D861B8E1C8EC601B501A4016B
:1037E00020E230E0F101099580E290E0A0E0B0E055
:1037F000A80EB91ECA1EDB1EFA94FF2009F0B3CF33
:1038000081E001C080E0A0960FB6F894DEBF0FBE45
:10381000CDBFCF91DF911F910F91FF90EF90DF907F
:10382000CF90BF90AF909F908F907F906F905F9060
:103830004F903F902F9008954F925F926F927F929A
:103840008F929F92AF92BF92CF92DF92EF92FF92B0
:103850000F931F93DF93CF93CDB7DEB72A970FB6A1
:10386000F894DEBF0FBECDBF2C015A016B0100974B
:1038700009F4E5C0DC0193960D911C919497ED91AC
:10388000FC91208931890115110599F0AB82BC8228
:10389000CD82DE8239018824992422273327A90189
:1038A00026193709480959092F83388749875A87C4
:1038B00020C0411551056105710509F4A9C0E6CF85
:1038C000D2018D919C91B8010E9409140097D9F002
:1038D000EB80FC800D811E812F81388549855A85BA
:1038E000E20EF31E041F151FEB82FC820D831E8364
:1038F0008C018B819C81AD81BE81681679068A0618
:103900009B06F0F2B4C078016B817C818D819E8131
:10391000660D771D881D991D615070408040904054
:10392000A40193010E94022BD2018D919C91B801B8
:10393000A9010E94BF14009709F481C0012B21F452
:10394000F20194A383A37C01D2019596AD92BD921E
:10395000CD92DC929897A114B104C104D10421F452
:1039600094961C921E929397F20181919191BF01BE
:103970000E94BD1A882309F462C0A114B104C104D5
:10398000D10429F4F20180819181B7013FC00B81FC
:103990001C812D813E816016710682069306C0F15E
:1039A000D2010D911C910115110591F1B2E0EB16B8
:1039B000F10470F1C801B7010E9409144C018FEFA6
:1039C0009FEF9A838983D801ED91FC911197EE0CBA
:1039D000FF1CB70180E090E016962D913D914D912E
:1039E0005C911997620F731F841F951F0480F581E6
:1039F000E02DAE014F5F5F4F22E030E00995882354
:103A000039F08114910421F0C801B4010E944914D5
:103A1000F20185A596A5A7A5B0A9A816B906CA065C
:103A2000DB0658F4D2019D96AD92BD92CD92DC9208
:103A3000D097D2961C921E92D19781E001C080E06F
:103A40002A960FB6F894DEBF0FBECDBFCF91DF919F
:103A50001F910F91FF90EF90DF90CF90BF90AF90AC
:103A60009F908F907F906F905F904F900895780116
:103A70000115110509F448CF67CFCF92DF92EF927D
:103A8000FF920F931F93CF93DF93EC016B0100978D
:103A900009F445C06115710509F441C08DA59EA5C5
:103AA000AFA5B8A9413059F0413018F04230B9F50E
:103AB0000CC0FB01E080F1800281138113C0FB0187
:103AC000E080F1800281138109C0FB01E080F18078
:103AD000028113818DA19EA1AFA1B8A5E80EF91EA8
:103AE0000A1F1B1F8DA19EA1AFA1B8A58E159F0512
:103AF000A007B10738F4CE01B801A7010E941C1C31
:103B0000882369F0EDA6FEA60FA718AB1AAA19AA7A
:103B1000F601E082F1820283138381E001C080E03C
:103B2000DF91CF911F910F91FF90EF90DF90CF9099
:103B300008952F923F924F925F926F927F928F9251
:103B40009F92AF92BF92CF92DF92EF92FF920F932C
:103B50001F93DF93CF9300D000D000D0CDB7DEB756
:103B60009E838D837A8369835C834B83009709F4FA
:103B700041C1672B09F43EC1452B09F43BC1DC016F
:103B80009D968D909D90AD90BC90D097FC0185A1A5
:103B900096A1A7A1B0A588159905AA05BB0508F4AB
:103BA00029C10190F081E02D20883188AD81BE814E
:103BB000D1960D911C91D2970115110509F055C0B0
:103BC00093960D911C91949701151105A9F48114F8
:103BD0009104A104B10409F00DC1CF0160E070E0CF
:103BE00041E050E00E94BF148C01ED81FE8194A35E
:103BF00083A3009709F4FEC0AD81BE819D96CD9050
:103C0000DD90ED90FC90D097C114D104E104F10453
:103C100021F52BC0C418D508E608F708ED81FE8110
:103C200080819181B8010E940914009711F08C01E4
:103C300017C0C114D104E104F10409F0DBC0AD8167
:103C4000BE818D919C91B80141E050E00E94BF146B
:103C5000009709F4CFC08C0103C0210166247724AA
:103C6000C414D504E604F704A8F608942108310822
:103C7000822093200894211C311CAB80BC80ED81F4
:103C8000FE81C080D180C114D104F9F00230110549
:103C9000E0F002501040B80180E090E00E5F1F4F4E
:103CA000D60150962D913C91519740E050E00E94F2
:103CB000B02A9B01AC01F60182899389A489B58958
:103CC000280F391F4A1F5B1F04C020E030E040E08E
:103CD00050E07101E818F908AE14BF0408F475014A
:103CE000D601ED91FC91C401A0E0B0E0280F391F8E
:103CF0004A1F5B1F0480F581E02DCA01B90149818B
:103D00005A8197010995882309F448C0AE18BF0865
:103D1000C701A0E0B0E0ED81FE8125A536A547A54D
:103D200050A9280F391F4A1F5B1F25A736A747A791
:103D300050ABC701880D991D8215930508F180814C
:103D40009181B8010E940914009711F08C0116C0EE
:103D5000A114B10459F0ED81FE8180819181B801F7
:103D600041E050E00E94BF14009739F4AD81BE815C
:103D7000D2961C921E92D19711C08C01882499244E
:103D8000ED81FE8112AB01ABA114B10439F0898140
:103D90009A818E0D9F1D9A83898371CFED81FE815B
:103DA00085A596A5A7A5B0A9E5A0F6A007A110A591
:103DB000E816F9060A071B07C0F485A396A3A7A374
:103DC000B0A781919191BF010E94BD1A882369F427
:103DD000AD81BE819D96AD90BC909E97AE18BF08F8
:103DE000FD01E5A6F6A607A710AB4B815C814A1939
:103DF0005B0902C04FEF5FEFCA0126960FB6F89439
:103E0000DEBF0FBECDBFCF91DF911F910F91FF900D
:103E1000EF90DF90CF90BF90AF909F908F907F906A
:103E20006F905F904F903F902F900895CF93DF93C6
:103E3000AC01DB01009789F16115710571F1909674
:103E40008C91909784FF29C08091AB149091AC1411
:103E5000892B19F4EBEAF4E108C08091DC1490910D
:103E6000DD14892BD1F4ECEDF4E19F012E5F3F4F7F
:103E7000BD018BE2EB010990BE01E90109929E01AF
:103E80008150C1F75183408391968D919C91929777
:103E900096A785A710AA17A602C0E0E0F0E0CF0120
:103EA000DF91CF910895CF93DF939C01FB010097A1
:103EB00031F06115710519F080A184FF23C020E065
:103EC00030E0C901DF91CF910895CAE7D4E1DF0165
:103ED0008BE20D9009928150E1F730937914209391
:103EE00078141092A5141092A6141092A714109290
:103EF000A81481A192A19093AA148093A91428E7F1
:103F000034E1DFCF8091781490917914892BB9F640
:103F1000DCCF6F927F928F929F92AF92BF92CF929F
:103F2000DF92EF92FF920F931F93CF93DF934C0199
:103F3000EB017A01009709F467C06115710509F476
:103F400063C08881882309F45FC04115510509F4D5
:103F50005BC08F3209F421968BE2F70111928A95AA
:103F6000E9F780E1F70180A3370101C0E50188810D
:103F7000882309F44BC0C401B7010E94161F6C01CD
:103F8000009709F441C0CE016FE270E00E94992CC5
:103F9000009739F0482F4C1B5C010894A11CB11C00
:103FA0002AC0FE0101900020E9F731974E2F4C1BEB
:103FB0005E01A40EB11C1FC0F30101900020E9F7BF
:103FC0003197E619F709E017F107B9F4CE01B3010B
:103FD000A8010E94B42C009781F4F601118210828E
:103FE0000C0F1D1FF8018081882381F0F70180A14B
:103FF00084FDBCCF09C0042F10E0C601B7010E94A8
:104000000A178823C9F612C080E001C081E0DF9161
:10401000CF911F910F91FF90EF90DF90CF90BF90C5
:10402000AF909F908F907F906F900895F6011182CE
:1040300010829DCFF894883028F58330A1F0843029
:1040400028F4813061F0823060F407C0863079F066
:10405000873079F0843071F408C0E8980BC0E99893
:1040600009C0EA9807C0EB9805C0EC9803C0EE9829
:1040700001C0EF98E82FF0E0EE0FFF1FE35FFA4E6C
:1040800011821082789408951F920F920FB60F92AA
:104090000BB60F9211242F933F934F935F936F931F
:1040A0007F938F939F93AF93BF93EF93FF938091F1
:1040B0000D1590910E15892B29F0E0910D15F091B9
:1040C0000E150995FF91EF91BF91AF919F918F913F
:1040D0007F916F915F914F913F912F910F900BBE08
:1040E0000F900FBE0F901F9018951F920F920FB652
:1040F0000F920BB60F9211242F933F934F935F9320
:104100006F937F938F939F93AF93BF93EF93FF939F
:1041100080910F1590911015892B29F0E0910F15C2
:10412000F09110150995FF91EF91BF91AF919F917B
:104130008F917F916F915F914F913F912F910F9050
:104140000BBE0F900FBE0F901F9018951F920F92ED
:104150000FB60F920BB60F9211242F933F934F93EC
:104160005F936F937F938F939F93AF93BF93EF93DF
:10417000FF938091111590911215892B29F0E091F0
:104180001115F09112150995FF91EF91BF91AF9123
:104190009F918F917F916F915F914F913F912F915F
:1041A0000F900BBE0F900FBE0F901F9018951F928F
:1041B0000F920FB60F920BB60F9211242F933F93CD
:1041C0004F935F936F937F938F939F93AF93BF931F
:1041D000EF93FF938091131590911415892B29F07B
:1041E000E0911315F09114150995FF91EF91BF918E
:1041F000AF919F918F917F916F915F914F913F917F
:104200002F910F900BBE0F900FBE0F901F9018951F
:104210001F920F920FB60F920BB60F9211242F938D
:104220003F934F935F936F937F938F939F93AF933E
:10423000BF93EF93FF938091151590911615892BDD
:1042400029F0E0911515F09116150995FF91EF9160
:10425000BF91AF919F918F917F916F915F914F919E
:104260003F912F910F900BBE0F900FBE0F901F909C
:1042700018951F920F920FB60F920BB60F92112442
:104280002F933F934F935F936F937F938F939F935E
:10429000AF93BF93EF93FF938091171590911815EB
:1042A000892B29F0E0911715F09118150995FF91C8
:1042B000EF91BF91AF919F918F917F916F915F919E
:1042C0004F913F912F910F900BBE0F900FBE0F900B
:1042D0001F9018951F920F920FB60F920BB60F9268
:1042E00011242F933F934F935F936F937F938F93FB
:1042F0009F93AF93BF93EF93FF9380911915909184
:104300001A15892B29F0E0911915F0911A150995C4
:10431000FF91EF91BF91AF919F918F917F916F919D
:104320005F914F913F912F910F900BBE0F900FBE59
:104330000F901F9018951F920F920FB60F920BB609
:104340000F9211242F933F934F935F936F937F931B
:104350008F939F93AF93BF93EF93FF9380911B1520
:1043600090911C15892B29F0E0911B15F0911C15DB
:104370000995FF91EF91BF91AF919F918F917F919F
:104380006F915F914F913F912F910F900BBE0F90C6
:104390000FBE0F901F901895EF92FF920F931F93EF
:1043A0007B018C01F894CB0181709070892B19F0FE
:1043B00082E00E941A20E1FE03C083E00E941A20DE
:1043C000E2FE03C082E00E941A20E3FE03C083E005
:1043D0000E941A20E4FE03C082E00E941A20F3FE2D
:1043E00003C082E00E941A20E5FE03C084E00E9420
:1043F0001A20F4FE03C082E00E941A20F5FE03C0DA
:1044000082E00E941A20F6FE03C083E00E941A2078
:104410008091800D9091810DA091820DB091830DBE
:10442000E094F094009510958E219F21A023B12354
:104430008093800D9093810DA093820DB093830D96
:1044400078941F910F91FF90EF900895FC010097D1
:1044500011F480E00895108681E008958F929F9274
:10446000AF92BF92CF92DF92EF92FF920F93DF93C2
:10447000CF93CDB7DEB760970FB6F894DEBF0FBE0F
:10448000CDBF7C016B015A014901009709F493C02B
:104490006115710509F48FC004300CF08CC007FD64
:1044A0001DC0602F772767FD7095E4E0660F771FCA
:1044B000EA95E1F762547E4F882777FD8095982F23
:1044C000AE014F5F5F4F20E130E0F701099588238F
:1044D00009F471C08D81882309F46DC08091251580
:1044E000882309F068C07CC08D81809325152A85BA
:1044F00030E040E050E0542F432F322F22278B85AD
:1045000090E0A0E0B0E0DC0199278827282B392B28
:104510004A2B5B2B898590E0A0E0B0E0282B392B5B
:104520004A2B5B2B8C8590E0A0E0B0E0B82FAA2747
:1045300099278827282B392B4A2B5B2B209326156C
:104540003093271540932815509329152E8530E078
:1045500040E050E0542F432F322F22278F8590E0E8
:10456000A0E0B0E0DC0199278827282B392B4A2BC3
:104570005B2B8D8590E0A0E0B0E0282B392B4A2BF7
:104580005B2B888990E0A0E0B0E0B82FAA2799279C
:104590008827282B392B4A2B5B2B20932A15309305
:1045A0002B1540932C1550932D1503C08FEF80933E
:1045B00025159F0102C020E030E0C90160960FB6CA
:1045C000F894DEBF0FBECDBFCF91DF910F91FF906A
:1045D000EF90DF90CF90BF90AF909F908F90089515
:1045E000EDE1F5E181E1DF011D928A95E9F7F092B5
:1045F0001E15E0921D15D0922015C0921F15B09285
:104600002215A0922115909224158092231507FF60
:104610006BCFCCCF282F8FEF8EBD0DB407FEFDCF13
:104620008DB58F778DBD8EB5822F80648EBD0DB414
:1046300007FEFDCF8DB58F778DBD872F9927AA27D0
:10464000BB278EBD0DB407FEFDCF8DB58F778DBD19
:10465000CB01AA27BB278EBD0DB407FEFDCF8DB5BC
:104660008F778DBDBB27A72F962F852F8EBD0DB4BD
:1046700007FEFDCF8DB58F778DBD4EBD0DB407FE06
:10468000FDCF8DB58F778DBD222319F0283069F4C9
:1046900006C085E98EBD0DB407FEFDCF0BC087E8CF
:1046A0008EBD0DB407FEFDCF05C08FEF8EBD0DB4DE
:1046B00007FEFDCF8DB58F778DBD90E02FEF2EBD1E
:1046C0000DB407FEFDCF8DB58F778DBD8EB58F3FB5
:1046D00019F49F5F9A3099F708952F923F924F9265
:1046E0005F926F927F928F929F92AF92BF92CF9282
:1046F000DF92EF92FF920F931F93CF93DF934B01C3
:104700005C012A01390133243A9422242394A1C064
:10471000E401D170CE01A0E0B0E085017401E81A97
:10472000F90A0A0B1B0BC12CB2E0DB2ECC1ADD0AF6
:104730006C147D0408F4630180912E1790912F175B
:10474000A0913017B0913117E816F9060A071B0738
:10475000F9F00E944424882309F480C0209729F4AA
:1047600080E0C81682E0D80658F4C801B7014EE2CE
:1047700055E120E032E00E945E24882309F46EC0F7
:10478000E0922E17F0922F170093301710933117E5
:104790008EE2481685E1580671F09E01225D3A4E80
:1047A000C901B201A6010E94892C109232176C1423
:1047B0007D0409F455C0289888E1B801A7010E943A
:1047C0000A23882311F0289A49C08EEF8EBD0DB4BC
:1047D00007FEFDCF8DB58F778DBDEEE2F5E18191BE
:1047E0008EBD0DB407FEFDCF8DB58F778DBD87E1F2
:1047F000EE32F807A1F73EBC0DB407FEFDCF8DB534
:104800008F778DBD3EBC0DB407FEFDCF8DB58F7784
:104810008DBD3EBC0DB407FEFDCF8DB58F778DBD30
:104820008EB58F3FB1F78EBD0DB407FEFDCF8DB5B0
:104830008F778DBD8EB5289A4C0C5D1CC601A0E00B
:10484000B0E0880E991EAA1EBB1E6C187D0820922F
:1048500032176114710409F05BCF02C080E001C01F
:1048600081E0DF91CF911F910F91FF90EF90DF904A
:10487000CF90BF90AF909F908F907F906F905F9000
:104880004F903F902F90089580913217882311F018
:1048900081E0089560912E1770912F178091301745
:1048A000909131174EE255E120E032E00E946D23F5
:1048B000882319F081E08093321708953F924F9238
:1048C0005F926F927F928F929F92AF92BF92CF92A0
:1048D000DF92EF92FF920F931F93CF93DF933B01F1
:1048E0004C016A01290133243A948FC01FEFA12E95
:1048F00011E0B12EA620B720C501A0E0B0E08401F0
:104900007301E81AF90A0A0B1B0BC0E0D2E0CA19BE
:10491000DB094C165D0608F4E20180912E17909198
:104920002F17A0913017B0913117E816F9060A0732
:104930001B0709F457C00E944424882309F46AC065
:10494000289881E1B801A7010E940A23882319F061
:10495000289A80E05FC03EBC0DB407FEFDCF8DB548
:104960008F778DBD8EB58E3FB1F7EEE2F5E13EBC9F
:104970000DB407FEFDCF8DB58F778DBD8EB58083CD
:1049800087E1ED32F80711F03196F1CFE0922E1762
:10499000F0922F1700933017109331179501225D75
:1049A0003A4EC601B901AE010E94892C3EBC0DB43D
:1049B00007FEFDCF8DB58F778DBD8EB53EBC0DB496
:1049C00007FEFDCF8DB58F778DBD8EB5289A3EBC85
:1049D0000DB407FEFDCFCC0EDD1E8DB58F778DBDDE
:1049E0008EB50AC09501225D3A4EC601B901AE01ED
:1049F0000E94892CCC0EDD1E4C1A5D0ACE01A0E06F
:104A0000B0E0680E791E8A1E9B1E4114510409F005
:104A10006DCF81E0DF91CF911F910F91FF90EF90CB
:104A2000DF90CF90BF90AF909F908F907F906F90CE
:104A30005F904F903F9008952F923F924F925F92D8
:104A40006F927F928F929F92AF92BF92CF92DF929E
:104A5000EF92FF920F931F93DF93CF9300D000D07C
:104A6000CDB7DEB74B015C013A013C832B832701B4
:104A7000DA82C98241155105A9F12115310591F15B
:104A80000217130778F1E114F10461F11901309470
:104A9000219431083394021B130B6901EE24FF2487
:104AA000C501B401A3012B813C810E945E248823AF
:104AB000C9F0C301B501A40129813A81F201099528
:104AC000882391F0020D131D8B819C81800F911F13
:104AD0002B813C818217930738F08C0C9D1CAE1CF7
:104AE000BF1CDECF80E001C081E00F900F900F90DF
:104AF0000F90CF91DF911F910F91FF90EF90DF907A
:104B0000CF90BF90AF909F908F907F906F905F906D
:104B10004F903F902F9008950F931F93CF93DF9363
:104B2000389883E58CBD8DB58E7F8DBD229A219AF4
:104B3000209A23981092331720E030E09FEF9EBD1B
:104B40000DB407FEFDCF8DB58F778DBD8EB52F5F70
:104B50003F4F2A30310599F72898C0E0D0E080E037
:104B600040E050E060E070E00E940A23182F81309E
:104B700039F081E0CF3FD80709F440C02196EFCF4C
:104B800087E340E050E060E070E00E940A2389E2A1
:104B900040E050E060E070E00E940A2382FD02C025
:104BA0001093331780913317082F10E003701070A3
:104BB000C0E0D0E00115110549F087E340E050E086
:104BC00060E070E00E940A2389E201C081E040E0D9
:104BD00050E060E070E00E940A2380FF06C08FE78B
:104BE000CF3FD80759F02196E5CF80E140E052E071
:104BF00060E070E00E940A23882319F0289A80E080
:104C000022C0289A8CB58C7F8CBD8DB581608DBDFE
:104C10008FEF9FEFAFEFBFEF80932E1790932F177B
:104C2000A0933017B093311781E08093321760E082
:104C300070E080E090E04EE255E120E032E00E943A
:104C40005E24811181E0DF91CF911F910F91089532
:104C50004F925F926F927F928F929F92AF92BF928C
:104C6000CF92DF92EF92FF920F931F93CF93DF9338
:104C70005B016C014A01E901380127014115510529
:104C800071F10115110559F1FF242115310511F5B7
:104C9000FF24F3941FC0C401B601A5019201F301E2
:104CA00009958C010097E9F0FF2019F4C817D9077E
:104CB000B0F0C601B501A40198010E946D238823BC
:104CC00071F0C801A0E0B0E0A80EB91ECA1EDB1E3C
:104CD000C01BD10BFF20F9F62097E9F602C080E057
:104CE00001C081E0DF91CF911F910F91FF90EF9074
:104CF000DF90CF90BF90AF909F908F907F906F90FC
:104D00005F904F900895882389F480913417909193
:104D1000351780509E4F2091361730913717821BE0
:104D2000930B60E072E00E94EF2A0895809138179B
:104D30009091391780589F4F20913A1730913B1727
:104D4000821B930B60E870E00E94EF2A089588238D
:104D5000D1F44091361750913717809134179091C4
:104D600035178417950751F1FA01E458F64E208162
:104D7000CA01019660E072E00E94EF2A9093371713
:104D80008093361719C040913A1750913B17809184
:104D90003817909139178417950781F0FA01E4507C
:104DA000F74E2081CA01019660E870E00E94EF2A68
:104DB00090933B1780933A1730E002C02FEF3FEFFC
:104DC000C9010895882349F41092371710923617B5
:104DD0001092351710923417089510923B171092C5
:104DE0003A17109239171092381708951F920F92A0
:104DF0000FB60F920BB60F9211242F933F934F9340
:104E00005F936F937F938F939F93AF93BF93EF9332
:104E1000FF934091C600E0913417F0913517CF0110
:104E2000019660E072E00E94EF2A9C0180913617A3
:104E3000909137172817390739F0E458F64E408318
:104E40003093351720933417FF91EF91BF91AF91B5
:104E50009F918F917F916F915F914F913F912F9192
:104E60000F900BBE0F900FBE0F901F9018951F92C2
:104E70000F920FB60F920BB60F9211242F933F9300
:104E80004F935F936F937F938F939F93AF93BF9352
:104E9000EF93FF934091CE00E0913817F0913917CE
:104EA000CF01019660E870E00E94EF2A9C0180919A
:104EB0003A1790913B172817390739F0E450F74E0D
:104EC00040833093391720933817FF91EF91BF91AA
:104ED000AF919F918F917F916F915F914F913F9192
:104EE0002F910F900BBE0F900FBE0F901F90189533
:104EF000982F662339F48091C00085FFFCCF9093F2
:104F0000C60008958091C80085FFFCCF9093CE0025
:104F10000895FC0110C03196662339F48091C000D9
:104F200085FFFCCF9093C60006C08091C80085FF26
:104F3000FCCF9093CE009081992369F708952F922A
:104F40003F924F925F926F927F928F929F92AF9219
:104F5000BF92CF92DF92EF92FF920F931F93DF9356
:104F6000CF93CDB7DEB7A1970FB6F894DEBF0FBED3
:104F7000CDBF6B017C0129013A0109A361157105BF
:104F80008105910591F4002341F48091C00085FFD3
:104F9000FCCF80E38093C6005BC08091C80085FF92
:104FA000FCCF80E38093CE0053C088249924540121
:104FB0001E010894211C311C8101080D191DC70117
:104FC000B601A30192010E94022BF80160830894AC
:104FD000811C911CA11CB11CC701B601A301920147
:104FE0000E94022BC901DA016C017D01C114D104B8
:104FF000E104F10409F79101280D391DBE016F5F2D
:105000007F4FD501C4010197A109B109AC0148192D
:1050100059091BC0FA01E20FF31FE081EA3010F4D6
:10502000E05D01C0E95CF9A1FF2339F48091C00083
:1050300085FFFCCFE093C60006C08091C80085FFC5
:10504000FCCFE093CE00215030406217730711F778
:10505000A1960FB6F894DEBF0FBECDBFCF91DF9102
:105060001F910F91FF90EF90DF90CF90BF90AF9086
:105070009F908F907F906F905F904F903F902F9078
:105080000895882371F488E00E94C8058091C100CA
:105090008F7E8093C1008091C100877F8093C10083
:1050A000089580E10E94C8058091C9008F7E809399
:1050B000C9008091C900877F8093C9000895EF924D
:1050C000FF920F931F937B018C014423C1F588E06D
:1050D0000E948E05C801B70122E030E040E050E0B8
:1050E0000E94242B205E3E45484F5F4FCA01B90104
:1050F000A80197010E94242BC901DA010197A10997
:10510000B109292F3A2F4B2F552747FD5A95019664
:10511000A11DB11D2093C50081508093C4008091D2
:10512000C10080618093C1008091C100886080933C
:10513000C1008091C10080688093C10037C080E1C8
:105140000E948E05C801B70122E030E040E050E047
:105150000E94242B205E3E45484F5F4FCA01B90193
:10516000A80197010E94242BC901DA010197A10926
:10517000B109292F3A2F4B2F552747FD5A950196F4
:10518000A11DB11D2093CD0081508093CC00809152
:10519000C90080618093C9008091C90088608093B4
:1051A000C9008091C90080688093C9001F910F9148
:1051B000FF90EF900895FC0180EC92E1A0E0B0E058
:1051C00080839183A283B38381E08483E755FF4F7B
:1051D00022E02083E95AF0401782168280E890E0AE
:1051E00091878087128623878EEA9CE095AB84ABFB
:1051F00084EB9CE097AB86AB8BEB9CE091AF80AFF0
:105200008FEB9CE093AF82AF82EC9CE095AF84AFD4
:1052100084EC9CE097AF86AFE05CFF4F8EEC9CE0A7
:105220008193919389ED9CE08193919310820895ED
:105230008CE397E10E94DB28089508950F931F9354
:105240008C010E942929F80110821F910F91089565
:10525000089558985998E9EBF0E080818160808347
:10526000808182608083ECEBF0E0808180688083C5
:1052700080818061808380818F7B808380818F7D2E
:1052800080838081877F8083808184608083808128
:105290008E7F8083E4E6F0E080818F7780830895BD
:1052A0001F920F920FB60F920BB60F9211242F93ED
:1052B0003F934F935F936F937F938F939F93AF939E
:1052C000BF93EF93FF938091B90090E0887F907037
:1052D0008036910509F4CAC081369105CCF5883233
:1052E000910509F47BC089329105B4F480319105B0
:1052F00009F46FC0813191053CF4009709F414C1A1
:10530000089709F01AC165C08831910509F466C093
:10531000809709F012C17DC08034910509F48DC0D9
:105320008134910544F48033910509F472C0C89723
:1053300009F003C1F5C08035910509F472C08835C4
:10534000910509F47FC08834910509F0F6C086C044
:105350008839910509F4E0C089399105ECF4883762
:10536000910509F483C0893791054CF4883691057D
:1053700009F47CC08037910509F0DFC077C0883818
:10538000910509F4C9C08039910509F475C08038C8
:10539000910509F0D2C070C0803B910509F493C01B
:1053A000813B91054CF4803A910509F477C0883A25
:1053B000910509F0C2C087C0803C910509F4B0C0D6
:1053C000883C910509F4ACC0883B910509F0B5C053
:1053D0008FC080918A188093BB009CC09091AF18B9
:1053E0008091B018981768F49091AF18E92FF0E009
:1053F000E157F74E80818093BB009F5F9093AF1879
:1054000089C085ED8093BC008091BC0084FDFCCFF9
:1054100092C085ED8093BC008091BC0084FDFCCFE0
:105420008AC08091AF189091BB00E82FF0E0E1575F
:10543000F74E90838F5F8093AF189091AF18809153
:10544000B01866C08091AF189091BB00E82FF0E0D3
:10545000E157F74E90838F5F8093AF1885ED80936F
:10546000BC008091BC0084FDFCCF65C083E08093CC
:1054700089181092F3184EC08091F318803208F00A
:105480004BC08091F3189091BB00E82FF0E0ED52F3
:10549000F74E90838F5F8093F3183CC08091F31890
:1054A000803230F4E091F318F0E0ED52F74E1082C4
:1054B0006091F318E0918D18F0918E1883ED98E1CA
:1054C00070E009952DC084E0809389181092D1185E
:1054D0001092D218E0918B18F0918C180995809158
:1054E000D218882329F481E08093D2181092B11841
:1054F0009091D118E92FF0E0EF54F74E808180931E
:10550000BB009F5F9093D1189091D1188091D218D1
:10551000981710F485EC01C085E88093BC000DC09D
:1055200085EC8093BC0007C085ED8093BC00809122
:10553000BC0084FDFCCF10928918FF91EF91BF91C0
:10554000AF919F918F917F916F915F914F913F911B
:105550002F910F900BBE0F900FBE0F901F901895BC
:10556000629FD001739FF001829FE00DF11D649F47
:10557000E00DF11D929FF00D839FF00D749FF00DD3
:10558000659FF00D9927729FB00DE11DF91F639F74
:10559000B00DE11DF91FBD01CF0111240895991B24
:1055A00079E004C0991F961708F0961B881F7A951A
:1055B000C9F780950895AA1BBB1B51E107C0AA1F1C
:1055C000BB1FA617B70710F0A61BB70B881F991FA4
:1055D0005A95A9F780959095BC01CD01089597FB48
:1055E000092E07260AD077FD04D0E5DF06D000207B
:1055F0001AF4709561957F4F0895F6F7909581950F
:105600009F4F0895A1E21A2EAA1BBB1BFD010DC0DE
:10561000AA1FBB1FEE1FFF1FA217B307E407F50762
:1056200020F0A21BB30BE40BF50B661F771F881F3E
:10563000991F1A9469F760957095809590959B01D4
:10564000AC01BD01CF01089597FB092E05260ED0B0
:1056500057FD04D0D7DF0AD0001C38F45095409590
:10566000309521953F4F4F4F5F4F0895F6F7909536
:105670008095709561957F4F8F4F9F4F0895EE0FE6
:10568000FF1F0590F491E02D09940F931F93CF9382
:10569000DF93689F8001699F100D789F100D112482
:1056A000C8010E94612BEC01009729F060E070E0D6
:1056B000A8010E94922CCE01DF91CF911F910F91F2
:1056C0000895CF93DF93BC018230910510F462E01E
:1056D00070E0A0917E1BB0917F1BED01E0E0F0E057
:1056E00040E050E021C0888199818617970769F4CE
:1056F0008A819B81309719F09383828304C09093B1
:105700007F1B80937E1BFE0134C06817790738F435
:105710004115510519F08417950708F4AC01FE01F5
:105720008A819B819C01E9012097E9F64115510589
:10573000A9F1CA01861B970B049708F4BA01E0E0AF
:10574000F0E02AC08D919C91119784179507F9F488
:105750006417750781F412968D919C911397309779
:1057600019F09383828304C090937F1B80937E1BE8
:10577000FD0132964FC0CA01861B970BFD01E80F51
:10578000F91F6193719302978D939C9343C0FD0120
:10579000828193819C01D9011097A1F680917C1B95
:1057A00090917D1B892B41F480916B0D90916C0D34
:1057B00090937D1B80937C1B40916D0D50916E0DDD
:1057C0004115510541F44DB75EB78091690D909137
:1057D0006A0D481B590B20917C1B30917D1B2417AF
:1057E0003507B0F4CA01821B930B8617970780F028
:1057F000AB014E5F5F4F8417950750F0420F531F68
:1058000050937D1B40937C1BF9016193719302C0FF
:10581000E0E0F0E0CF01DF91CF910895CF93DF93E7
:10582000009709F450C0EC0122971B821A82A091C4
:105830007E1BB0917F1B109709F140E050E0AC1740
:10584000BD0708F1BB83AA83FE0121913191E20FCC
:10585000F31FAE17BF0779F48D919C911197280F14
:10586000391F2E5F3F4F3983288312968D919C916B
:1058700013979B838A834115510571F4D0937F1B45
:10588000C0937E1B20C012968D919C911397AD0101
:10589000009711F0DC01D3CFFA01D383C2832191A9
:1058A0003191E20FF31FCE17DF0769F488819981E8
:1058B000280F391F2E5F3F4FFA01318320838A81E1
:1058C0009B8193838283DF91CF910895FC01882788
:1058D0009927E89421912032E9F3293010F02E30F5
:1058E000C8F32B3241F02D3239F4689404C00E9481
:1058F000FF2C820F911D219120532A30C0F31EF4FA
:10590000909581959F4F08954EE75DE00E94CD2CC4
:105910000895FB01DC0102C001900D9241505040FE
:10592000D8F70895DC0101C06D9341505040E0F775
:105930000895FC018191861721F08823D9F79927D2
:1059400008953197CF010895FB01DC018D910190FD
:1059500080190110D9F3990B0895FB01DC01019026
:105960000D920020E1F70895FB01DC014150504009
:1059700030F08D910190801919F40020B9F7881B3F
:10598000990B0895FC0181E090E00190061609F45E
:10599000CF010020D1F701970895009731F4DA0183
:1059A0008D919C91009709F40EC0DC01FB013D91A3
:1059B0002191222319F03217C9F3FACF332331F49E
:1059C000DA011D921C928827992708951197AF93A9
:1059D000BF93FB013D912191321771F4332321F4E0
:1059E00088279927119702C01E921196FA01A19358
:1059F000B0839F918F910895222369F7EACF7AE0CF
:105A0000979F902D879F802D910D112408950F93BE
:105A10001F93DF93CF93CDB7DEB72E970FB6F894D1
:105A2000DEBF0FBECDBF0D891E8986E08C831A8331
:105A300009838FEF9FE79E838D839E01275E3F4FF3
:105A4000CE0101966F89788DA9010E94382D2F8192
:105A50003885020F131FF80110822E960FB6F894A6
:105A6000DEBF0FBECDBFCF91DF911F910F91089583
:105A70002F923F924F925F926F927F928F929F925E
:105A8000AF92BF92CF92DF92EF92FF920F931F934C
:105A9000DF93CF93CDB7DEB72B970FB6F894DEBF69
:105AA0000FBECDBF3C012B015A01FC0117821682AB
:105AB000838181FD03C06FEF7FEFC6C19AE0892E1D
:105AC0001E010894211C311CF3012381F20123FDE6
:105AD000859123FF81912F01882309F4B2C185327A
