:100000000C94C9000C948D1D0C94BE1D0C94EF1D16
:100010000C94201E0C94511E0C94821E0C94B31E42
:100020000C94E41E0C94F3000C94F3000C94F30075
:100030000C9482040C94F3000C94F3000C94400391
:100040000C94F3000C94F3000C94F3000C94F30064
:100050000C94F3000C94F3000C94F3000C941B0329
:100060000C94F3000C943F240C94F3000C94F300D4
:100070000C94F3000C94F3000C94F3000C94F30034
:100080000C94F3000C94F3000C94F3000C94F30024
:100090000C9480240C94F3000C94F3000C94992697
:1000A0000C94F3000C94F3000C94F3000C94F30004
:1000B0000C94F3000C94F3000C94F3000C94F300F4
:1000C0000C94F3000C94F3000C94F300002124270B
:1000D0002A2D3033002225282B2E313400202326D0
:1000E000292C2F3205050505030303030101010433
:1000F00004030606060606060606010405010501B8
:1001000003020202020202010202050504040304C2
:1001100004010304070707010208101020408004AF
:1001200008102040020204081020408001028020B4
:100130004004200101020408102001408040800199
:1001400002080408800410040201000008090000ED
:10015000000000000000000000000000000000009F
:10016000000000000000000000000000000000008F
:1001700000000000000000000000000000006E050C
:1001800046097F09170AC716F016FE16612666266D
:10019000712611241FBECFEFD1E2DEBFCDBF1DE01F
:1001A000A0E0B2E0EAE6F9E500E00BBF02C007908C
:1001B0000D92A637B107D9F71CE1A6E7BDE001C053
:1001C0001D92AF33B107E1F711E0C2E9D1E004C0FD
:1001D0002297FE010E947E28CE37D107C9F70E94E0
:1001E00014030C94B32C0C9400000F931F9305E69A
:1001F00011E1C80160E072E00E94FA090E942A0938
:10020000BC01C8010E94C1091F910F910895BC0152
:1002100010927F0D86E691E10E94880F882321F0DD
:1002200081E080937F0D02C010927F0D80917F0D41
:10023000089510927F0D86E691E161E046E052E07C
:1002400025E132E00E94EC11882321F081E08093C7
:100250007F0D08C085E691E16AE172E00E94FA092B
:1002600010927F0D80917F0D0895BF92CF92DF9203
:10027000EF92FF920F931F93CF93DF9310927F0D16
:1002800085E691E16FE372E00E94000A8EEA9EE04B
:100290000E941B098EEA9EE065E572E00E94E90576
:1002A0008823E9F585E691E163E672E00E94000AA1
:1002B00048C08EEA9EE065E572E0A701960101E084
:1002C00010E00E941007BC0181E89DE00E94C72950
:1002D00081E89DE00E9407010894C11CD11CE11C2B
:1002E000F11C882371F085E691E1BE010E94B909F5
:1002F00085E691E167E772E00E94000AB092800D06
:1003000013C085E691E16EE772E00E94FA0985E686
:1003100091E1BE010E94C1091092800D12C0CC244F
:10032000DD247601BB24B394E6018EEA9EE065E508
:1003300072E00E947206C616D706E806F9060CF4AB
:10034000B8CF8091800D813031F485E691E167E985
:1003500072E00E94000A8EEA9EE00E940F0988EA7D
:1003600092E00E94070186E691E10E94FD138091D0
:100370007F0DDF91CF911F910F91FF90EF90DF9054
:10038000CF90BF900895CF93DF93EC0110927F0D33
:1003900086E691E10E94A4160E94650360937A0D9F
:1003A00070937B0D80937C0D90937D0D12C086E63B
:1003B00091E10E94940B8823F9F485E691E16CEABF
:1003C00072E00E94000A60ED77E080E090E00E9419
:1003D0007D030E94650320917A0D30917B0D409141
:1003E0007C0D50917D0D621B730B840B950B605E31
:1003F0007E4280409040D8F20E94650320917A0DA1
:1004000030917B0D40917C0D50917D0D621B730BE3
:10041000840B950B615E7E428040904080F085E6C3
:1004200091E160EC72E00E94FA090E942A09BC0185
:1004300085E691E10E94C10910927F0D03C081E021
:1004400080937F0D2197C1F486E691E10E946D0EA5
:10045000882391F410927F0D86E691E10E94291382
:10046000882351F410927F0D86E691E10E943215A7
:10047000882311F410927F0D80917F0DDF91CF9131
:10048000089510927F0D0E94650360937A0D70931A
:100490007B0D80937C0D90937D0D14C086E691E1D9
:1004A00060E040E00E9401148823F9F485E691E1C0
:1004B00063ED72E00E94000A68EB7BE080E090E070
:1004C0000E947D030E94650320917A0D30917B0D7F
:1004D00040917C0D50917D0D621B730B840B950B2D
:1004E000605F794482409040C8F20E946503209189
:1004F0007A0D30917B0D40917C0D50917D0D621BEA
:10050000730B840B950B615F79448240904080F0BF
:1005100085E691E16BEE72E00E94FA090E942A09D9
:10052000BC0185E691E10E94C10910927F0D03C0D4
:1005300081E080937F0D80917F0D089581E090E0B0
:100540000E94C301882391F185E691E164E073E0A4
:100550000E94000A0E944102882319F185E691E178
:1005600065E173E00E94000A0E9419018823A1F04E
:1005700085E691E165E273E00E94000A0E94350180
:10058000882329F085E691E166E373E013C085E6F0
:1005900091E161E573E00EC085E691E16CE673E000
:1005A00009C085E691E163E973E004C085E691E165
:1005B00066EB73E00E94000A86E691E10E948A16CB
:1005C00008950F931F9305E611E1C8016AED73E0EA
:1005D0000E94FA0940917E0D4F5F40937E0D41507D
:1005E00050E060E070E0C8012AE030E00E94EF09CE
:1005F0000E949E020E94F50068EB7BE080E090E0A4
:100600000E947D031F910F9108950F931F9305E69C
:1006100011E1C8010E940E0AC80164EE73E00E9455
:10062000000A1F910F9108950E94C5030E940503BF
:100630000E94E102FDCF1F920F920FB60F9211247C
:100640008F939F93AF93BF938091B3199091B419F7
:10065000A091B519B091B6190196A11DB11D809355
:10066000B3199093B419A093B519B093B619BF916B
:10067000AF919F918F910F900FBE0F901F90189583
:100680001F920F920FB60F9211248F939F93AF93E7
:10069000BF938091B7199091B819A091B919B091F1
:1006A000BA190196A11DB11D8093B7199093B8197D
:1006B000A093B919B093BA19BF91AF919F918F913F
:1006C0000F900FBE0F901F9018956091B319709105
:1006D000B4198091B5199091B61927E0660F771F6C
:1006E000881F991F2A95D1F72EE330E040E050E0B3
:1006F0000E943F28CA01B9010895AF92BF92CF92DC
:10070000DF92EF92FF920F931F935B016C01609158
:10071000B3197091B4198091B5199091B61947E049
:10072000660F771F881F991F4A95D1F72EE330E097
:1007300040E050E00E943F2879018A016091B3199E
:100740007091B4198091B5199091B61937E0660F80
:10075000771F881F991F3A95D1F72EE330E040E0CC
:1007600050E00E943F282E193F09400B510B2A15DB
:100770003B054C055D0510F31F910F91FF90EF9025
:10078000DF90CF90BF90AF900895789484B7877F23
:1007900084BF1092B3191092B4191092B519109227
:1007A000B61984B5826084BD84B5816084BD85B589
:1007B000826085BD85B5816085BDEEE6F0E0808113
:1007C00081608083E1E8F0E08081826080838081C5
:1007D00081608083E0E8F0E0808181608083E1EBEC
:1007E000F0E0808184608083E1E9F0E080818460D2
:1007F0008083E0EBF0E0808181608083E0E9F0E0DD
:10080000808181608083E4E6F0E080818E7F808358
:10081000ECE7F0E080818F77808380818064808343
:10082000EAE7F0E080818460808380818260808359
:100830008081806880831092C1001092C900089561
:100840009091AD0E982B9093AD0E80FF32C08091A9
:1008500064008E7F8093640080917C008F7780930A
:100860007C0080917C00806480937C0080917A0081
:10087000846080937A0080917A00826080937A000D
:1008800080917A00806880937A00809164008F77ED
:1008900080936400809164008B7F809364008091DA
:1008A00064008D7F80936400809165008E7F8093CB
:1008B00065000895282F20959091AD0E9223909376
:1008C000AD0E80FF1EC080917A008F7780937A00F2
:1008D00080916400816080936400809164008068EE
:1008E00080936400809164008460809364008091B0
:1008F00064008260809364008091650081608093D1
:10090000650008951F920F920FB60F920BB60F92CB
:1009100011242F933F934F935F936F937F938F9304
:100920009F93AF93BF93EF93FF93F89481E08093ED
:10093000680DE0E6F0E080818068808380818F7BB5
:10094000808383E060E00E94D7047894FF91EF9168
:10095000BF91AF919F918F917F916F915F914F91D7
:100960003F912F910F900BBE0F900FBE0F901F90D5
:100970001895282F30E0C901895E9E4FFC019491A3
:100980002C513F4FF9018491882381F0E82FF0E04A
:10099000E453FF4FE491F0E0662329F480819095C1
:1009A0008923808308958081892B80830895482F2F
:1009B00050E0CA01865B9E4FFC012491CA01895E0A
:1009C0009E4FFC0194914C515F4FFA0134913323B7
:1009D000C1F1222331F1233021F4809180008F77FF
:1009E00005C0243031F4809180008F7D8093800099
:1009F00018C0213019F484B58F7704C0223021F457
:100A000084B58F7D84BD0DC0263021F48091B00067
:100A10008F7705C0273029F48091B0008F7D8093B7
:100A2000B000E32FF0E0EC52FF4FE491F0E06623DA
:100A300029F4808190958923808308958081892B72
:100A400080830895482F50E0CA01865B9E4FFC01C9
:100A50002491CA01895E9E4FFC0194914C515F4FD5
:100A6000FA013491332319F420E030E035C0222319
:100A700031F1233021F4809180008F7705C024303C
:100A800031F4809180008F7D8093800018C02130E8
:100A900019F484B58F7704C0223021F484B58F7D9A
:100AA00084BD0DC0263021F48091B0008F7705C041
:100AB000273029F48091B0008F7D8093B000E32F20
:100AC000F0E0E452FF4FE491F0E0808120E030E07C
:100AD000892311F021E030E0C901089508950F93B2
:100AE0001F938C0105591E4FF801808191810E944E
:100AF000991804501040F801819191918F010E9442
:100B00000317F801808191810E946F1F8DE160E0E1
:100B10000E94B9048EE160E00E94B90480E260E0C6
:100B20000E94B9048FE160E00E94B9041F910F9107
:100B30000895CF93DF93EC018CE10E942205892B6D
:100B400011F081E004C0CE010E946F0580E0DF91CA
:100B5000CF910895CF92DF92EF92FF920F931F9360
:100B6000CF93DF93EC017B016A01C559DE4F088109
:100B70001981CB56D140CE010E9499058823D1F42A
:100B8000CC59DE4F81E090E099838883C456D140F0
:100B9000CE016AEF73E00E94C72980E011C0C60150
:100BA000B7010E94BE29009729F4C8010E949F182E
:100BB00081E006C0C801B6010E94AC18882379F70D
:100BC000DF91CF911F910F91FF90EF90DF90CF9029
:100BD0000895DF93CF93CDB7DEB7AB970FB6F894F8
:100BE000DEBF0FBECDBFAE014F5F5F4F0E94AA05B3
:100BF000882311F48FEF05C089A182958F708095AD
:100C00008170AB960FB6F894DEBF0FBECDBFCF910B
:100C1000DF910895AF92BF92CF92DF92EF92FF9251
:100C20000F931F93DF93CF93CDB7DEB7AB970FB67C
:100C3000F894DEBF0FBECDBF8C016B0109591E4F6A
:100C4000F801A080B18007561140C8010E949905A3
:100C5000F4E6EF2EF1E0FF2EE00EF11E882359F4AA
:100C600081E490E0F70191838083C8016AEF73E02B
:100C70000E94C72916C0F701808191818F7B9183E3
:100C80008083C801B6018E010F5F1F4FA8010E942B
:100C9000AA05882349F4F7018081918180649183BA
:100CA000808320E030E00CC0C501B8010E949C1C8C
:100CB0009C01009729F4C501B8010E949C1C9C016D
:100CC000C901AB960FB6F894DEBF0FBECDBFCF9172
:100CD000DF911F910F91FF90EF90DF90CF90BF9029
:100CE000AF9008956F927F928F929F92AF92BF9232
:100CF000CF92DF92EF92FF920F931F93DF93CF93E8
:100D0000CDB7DEB78C016B016DB67EB60E9499053A
:100D1000A4E6EA2EA1E0FA2EE00EF11E882379F473
:100D200081E490E0D7018D939C93C8016AEF73E052
:100D30000E94C7292FEF3FEF4FEF5FEF5BC0F70136
:100D4000808191818F7B91838083C801B6010E944D
:100D50000A065C01009739F500D000D000D0EDB74D
:100D6000FEB73196ADB7BEB712961C930E9311978E
:100D700084E194E093838283D582C4820E94DC293B
:100D8000F701808191818064918380832FEF3FEF11
:100D90004FEF5FEF8DB79EB706960FB6F8949EBFE4
:100DA0000FBE8DBF27C00F92CDB6DEB60894C11C12
:100DB000D11C4601B60141E050E00E944F17EE24DD
:100DC000FF2487010BC00894E11CF11C011D111DBB
:100DD000C501B40141E050E00E944F17882329F07B
:100DE000D6018C918A30A1F7EECFC5010E94491738
:100DF000A8019701B901CA010FB6F8947EBE0FBED3
:100E00006DBECF91DF911F910F91FF90EF90DF901A
:100E1000CF90BF90AF909F908F907F906F900895EC
:100E20002F923F924F925F926F927F928F929F92FA
:100E3000AF92BF92CF92DF92EF92FF920F931F93E8
:100E4000DF93CF9300D000D0CDB7DEB76C015B014C
:100E500039014A0128012DB73EB73A8329830E9400
:100E600099058823A1F484E691E0C80ED91E81E497
:100E700090E0D6018D939C93ECE9FEEFCE0EDF1E41
:100E80008601C6016AEF73E00E94C729D3C001152D
:100E9000110521F438EE432E33E0532E24E6E22EE2
:100EA00021E0F22EEC0CFD1CD7018D919C91119745
:100EB0008F798D939C93C601B5010E940A061C018F
:100EC000009721F5860100D000D000D0EDB7FEB725
:100ED0003196ADB7BEB71196CC92D18284E194E041
:100EE00093838283B582A4820E94DC29F7018081EA
:100EF00091818064918380832DB73EB72A5F3F4FF5
:100F00000FB6F8943EBF0FBE2DBF94C00F92ADB682
:100F1000BEB60894A11CB11CAB82BC82B50141E0F5
:100F200050E00E944F17611471048104910481F410
:100F3000EE24FF2487013FC00894610871088108EE
:100F40009108C1016B817C8141E050E00E944F1704
:100F5000882341F4D5018C91F60180838C918A30ED
:100F600071F40AC0611471048104910499F3D501EC
:100F70008C918A3031F7E0CF089441085108C101C3
:100F80006B817C8141E050E00E944F1791E0E92E97
:100F9000F12C012D112D0FC008944108510808941F
:100FA000E11CF11C011D111DC1016B817C8141E01F
:100FB00050E00E944F178823A1F04114510489F09A
:100FC000BFEFEB16F1040105110509F0A8F4F601D5
:100FD000EE0DFF1DD5018C9180838C918A30F9F63E
:100FE000DBCFBFEFEB16F1040105110528F4F60184
:100FF000EE0DFF1D10821AC0ECEFF0E0CE0EDF1EEA
:101000008EE3D6018D93FD0181938AE0DF018D93FC
:101010006D011C92E1E0FFEFCE0EDF1EF601EC59F0
:10102000FE4F80819181806291838083C1010E9403
:1010300049178601C80129813A810FB6F8943EBF4D
:101040000FBE2DBF0F900F900F900F90CF91DF919B
:101050001F910F91FF90EF90DF90CF90BF90AF90D6
:101060009F908F907F906F905F904F903F902F90C8
:1010700008958BE161E00E94B9048CE160E00E9478
:10108000B9040895CF92DF92EF92FF920F931F93CE
:10109000DF93CF93CDB7DEB7AB970FB6F894DEBF33
:1010A0000FBECDBF7C010E949905882361F424E620
:1010B00031E0E20EF31E81E090E0F701918380833E
:1010C0002AEF33E083C00E94D522882361F424E60E
:1010D00031E0E20EF31E82E090E0F701918380831D
:1010E00023E135E073C087EA91E265E672E246EB00
:1010F00050E221E733E200E00E94771F19E6C12E9B
:1011000011E0D12ECE0CDF1CF60191838083892B58
:10111000E1F487EA91E265E672E246EB50E221E70C
:1011200033E20FEF0E94771FF60191838083892BB2
:1011300061F424E631E0E20EF31E84E090E0F70172
:101140009183808320E335E041C0F701E759FE4FEA
:10115000808191810E94BC1AB7E6CB2EB1E0DB2ED4
:10116000CE0CDF1CF60191838083009761F424E6A6
:1011700031E0E20EF31E88E090E0F7019183808376
:1011800029E435E023C063E675E08E010F5F1F4F51
:10119000A8010E94D21CF60180819181B8010E94B1
:1011A0005F1C2BE631E0E20EF31EF7019183808392
:1011B0003797892B39F480E190E09183808325E68D
:1011C00035E004C0118210822DE735E0C901AB96ED
:1011D0000FB6F894DEBF0FBECDBFCF91DF911F9148
:1011E0000F91FF90EF90DF90CF900895FC01EA59A6
:1011F000FE4F6083613019F0623081F40BC08BE1E7
:1012000061E00E94D7046AE070E080E090E00E9414
:101210007D0308958BE160E00E94D70408950F9349
:101220001F938C010E946F05C80162E00E94F608BE
:101230001F910F9108950F931F938C010E943908FD
:10124000C80161E00E94F608C8010E9442081F918F
:101250000F910895DF93CF9300D0CDB7DEB72091E3
:101260003B1C30913C1CCE0101962115310519F42F
:101270008F539C4102C0821B930B9A83898389817F
:101280009A810F900F90CF91DF91089508958FE28A
:1012900061E00E94B90484E261E00E94B90485E241
:1012A00061E00E94B9048FE261E00E94D70484E209
:1012B00061E00E94D70485E261E00E94D7040895AE
:1012C0000F931F93162F042F8FE261E00E94B90441
:1012D00084E261E00E94B90485E261E00E94B90401
:1012E0008FE261E00E94D70484E2612F0E94D7045C
:1012F00085E2602F0E94D7041F910F9108951092EC
:10130000651108950F931F938C018DE0F8016081A2
:101310000E94C1248AE0F80160810E94C1241F91CB
:101320000F910895EF92FF920F931F93CF93DF9346
:10133000EC017A018B0177FF0CC08DE268810E947D
:10134000C12410950095F094E094E11CF11C011D5E
:10135000111DC801B7012AE030E040E050E00881EB
:101360000E94E824DF91CF911F910F91FF90EF90A1
:101370000895AB01662757FD6095762F0E9492096C
:1013800008950F931F938C01AB01662757FD60955D
:10139000762F0E949209C8010E9482091F910F9125
:1013A00008950F931F93FC01DA018B01211531057C
:1013B00029F4842F60810E94C1240EC02A30310597
:1013C00019F40E94920908C030E040E050E0BD01ED
:1013D000C80100810E94E8241F910F9108950F9386
:1013E0001F938C010E94D109C8010E9482091F919C
:1013F0000F910895FC01CB0160810E94D2240895D1
:101400000F931F938C01CB01F80160810E94D224BD
:10141000C8010E9482091F910F910895FC0160E0AC
:1014200076E980E090E040810E94A825089580E060
:1014300091EE90933812809337121092391281E016
:1014400080933A12809366110895CF92DF92EF92C3
:10145000FF920F931F93CF93DF936C0192E0E92EDD
:10146000F12CEC0CFD1C00D000D000D0EDB7FEB785
:101470003196ADB7BEB71296FC92EE92119780E806
:1014800095E09383828387E895E0958384830E9427
:10149000DC29EDB7FEB736960FB6F894FEBF0FBE47
:1014A000EDBF86010C521F4FC701D8016C910E94FD
:1014B000D224E80188810E94CC23892BD9F388812A
:1014C0000E94F0230A97B1F7E601CC52DF4F8881E2
:1014D0000E94CC23892BD9F388810E94F0230A979C
:1014E000B1F7E601CC52DF4F88810E94CC23892BD3
:1014F000D9F388810E94F0230A97B1F788ECE82E8F
:1015000082E0F82EEC0CFD1CC0E0D0E086010C520D
:101510001F4FF80180810E94CC23892BD1F3D80181
:101520008C910E94F023F70181937F018D3011F09F
:101530002196EFCFCC0DDD1DC853DD4F188290E012
:1015400028EC32E0C20ED31ED6018C91853409F00E
:1015500091E0892FDF91CF911F910F91FF90EF9034
:10156000DF90CF9008952F923F924F925F926F92AB
:101570007F928F929F92AF92BF92CF92DF92EF9223
:10158000FF920F931F93DF93CF9300D000D0CDB77E
:10159000DEB75C011B012A0149013C01FC0180E02E
:1015A00090E020E222830196319684369105D1F7AE
:1015B000CC24DD2403C00894C11CD11CF101EC0D26
:1015C000FD1D80818823B9F708C068EE73E080E0D4
:1015D00090E00E947D030150104010161106ACF3FC
:1015E0007CC0D7018C910E94CC23892B09F068C064
:1015F000841495040CF064C00894811C911C68EE5E
:1016000073E080E090E00E947D03EBCFF7018081E2
:101610000E94F023D80111968C9364E170E080E081
:1016200090E00E947D03EB81FC813196FC83EB838B
:101630000F5F1F4F2B813C812C153D053CF310E0C3
:10164000D7018C910E94CC23892BD1F1D30120E0CA
:1016500030E010C012968C9112971196F101E20FB2
:10166000F31F9081891721F0F3011C821B820FC0A8
:101670002F5F3F4F2C153D056CF381E03EC02B8161
:101680003C812F5F3F4F3C832B8382818183319646
:101690008B819C81A981BA818A179B0784F3F7010A
:1016A00080810E94F0232B813C812A0D3B1DD901B2
:1016B00012968C9364E170E080E090E00E947D03DC
:1016C000F70180810E94CC23892B91F0112309F42A
:1016D000B7CF83011C821B82ABCF11E054EDE52E06
:1016E000F12CEA0CFB1C9601215030403A832983EF
:1016F000841495040CF475CF80E00F900F900F9038
:101700000F90CF91DF911F910F91FF90EF90DF909D
:10171000CF90BF90AF909F908F907F906F905F9091
:101720004F903F902F9008952F923F924F925F924B
:101730006F927F928F929F92BF92CF92DF92EF92A1
:10174000FF920F931F93DF93CF93CDB7DEB72A9706
:101750000FB6F894DEBF0FBECDBF7C01AAE0BA2E53
:101760006E010894C11CD11CF9EB2F2EF5E03F2E21
:10177000EDE04E2E512C7AE0672E712C64ED862E12
:10178000912C880E991E2DB73EB72A5030400FB6C7
:10179000F8943EBF0FBE2DBFEDB7FEB73196ADB783
:1017A000BEB71296DC92CE92119722EB35E03383CE
:1017B00022833582248257824682718660860E9407
:1017C000DC298DB79EB70A960FB6F8949EBF0FBE60
:1017D0008DBFC601D4016C910E94D224C70162EC76
:1017E00075E041E050E020E030E000E010E00E94D1
:1017F000B30A813029F4E7E6F3E0EE0EFF1E16C0CF
:10180000C601F40160810E94D224C7016DEC75E02D
:1018100041E050E020E030E000E010E00E94B30A38
:10182000813041F427E633E0E20EF31ED7018C93BA
:1018300081E010C064E670E080E090E00E947D03EB
:10184000BA9409F0A0CFE7E6F3E0EE0EFF1ED70151
:101850001C9280E02A960FB6F894DEBF0FBECDBF73
:10186000CF91DF911F910F91FF90EF90DF90CF907C
:10187000BF909F908F907F906F905F904F903F9020
:101880002F9008952F923F924F925F926F927F9286
:101890008F929F92AF92BF92CF92DF92EF92FF9280
:1018A0000F931F93DF93CF93CDB7DEB729970FB672
:1018B000F894DEBF0FBECDBF6C017A8369831A0135
:1018C0003C832B8328018D836D2CFC0180E090E00C
:1018D00020E222830196319684369105D1F788243F
:1018E000992403C00894811C911CE981FA81E80DB8
:1018F000F91D80818823B1F7AA24BB2403C0089472
:10190000A11CB11CF101EA0DFB1D80818823B9F7F0
:1019100009C068EE73E080E090E00E947D030894C7
:10192000E108F1081E141F04A4F300E010E077247E
:101930007394B4EDEB2EF12CEC0CFD1CE0C0D70140
:101940008C910E94CC23892B09F0D2C0EB81FC81C1
:101950004E165F060CF0CCC00894411C511C68EE7A
:1019600073E080E090E00E947D03E9CF772009F4E6
:1019700045C08A149B0444F48D81962D9C013F83BD
:101980002E8300E010E030C08D81962D9C013F83B6
:101990002E8300E010E00FC0D7018C910E94F0234D
:1019A000EE81FF81818364E170E080E090E00E943D
:1019B0007D030F5F1F4F4E815F814F5F5F4F5F83DE
:1019C0004E830A151B0544F329C0D7018C910E9450
:1019D000F023EE81FF81818364E170E080E090E09C
:1019E0000E947D030F5F1F4F4E815F814F5F5F4FEE
:1019F0005F834E830815190544F310C0D7018C91FD
:101A00000E94CC23892B51F0F70180810E94F023A2
:101A1000F601E00FF11F82830F5F1F4F8D81962D1E
:101A20009C01D90120E030E02BC012969C911297C6
:101A3000E981FA818081981701F5F987E8872E5F9F
:101A40003F4FB601620F731F2250304040E00CC080
:101A5000FB018191BF01488559854F5F5F4F5987D1
:101A6000488741E0891749F4E885F98590819923F1
:101A700079F7442311F081E049C02F5F3F4F119661
:101A80002017310794F28D81962D9C01D90120E019
:101A900030E02AC012969C911297F101808198172C
:101AA00001F5398628862E5F3F4FB601620F731FFE
:101AB0002250304040E00CC0FB018191BF014885BD
:101AC00059854F5F5F4F5987488741E0891749F42F
:101AD000E885F9859081992379F7442311F082E014
:101AE00015C02F5F3F4F119677242017310794F2CE
:101AF000D7018C910E94CC23892B09F037CFEB8141
:101B0000FC814E165F060CF41ACF80E029960FB6C2
:101B1000F894DEBF0FBECDBFCF91DF911F910F9123
:101B2000FF90EF90DF90CF90BF90AF909F908F90FD
:101B30007F906F905F904F903F902F9008954F92BD
:101B40005F926F927F928F929F92AF92BF92CF924D
:101B5000DF92EF92FF920F931F93CF93DF935C017D
:101B600039012801470112E0E12EF12CE80EF91E9F
:101B70008DB79EB708970FB6F8949EBF0FBE8DBF66
:101B8000EDB7FEB73196ADB7BEB71296FC92EE92A6
:101B9000119788ED95E093838283758364835783DF
:101BA00046830E94DC29EDB7FEB738960FB6F8944D
:101BB000FEBF0FBEEDBF85010C521F4FD8018C91A7
:101BC0000E942B24C0E0D0E00EC0209729F4C7016A
:101BD000F80160810E94D2246CED75E080E090E015
:101BE0000E947D032196D8018C910E94CC23892BE1
:101BF00039F4C815D90524F4C114D10431F7E7CF5D
:101C0000C501B301A20194018E01EE24FF240E94BC
:101C1000420CDF91CF911F910F91FF90EF90DF90D9
:101C2000CF90BF90AF909F908F907F906F905F907C
:101C30004F900895CF92DF92EF92FF920F931F93F0
:101C40006701EAE0EE2EF12C0E949F0D1F910F918B
:101C5000FF90EF90DF90CF9008958F929F92AF9278
:101C6000BF92CF92DF92EF92FF920F931F936C017E
:101C70005A01490178018C010E5F1F4F00D000D03E
:101C800000D0EDB7FEB73196ADB7BEB712961C9334
:101C90000E93119780EE95E093838283758364831E
:101CA0000E94DC298DB79EB706960FB6F8949EBFAA
:101CB0000FBE8DBFC601B80145EE55E09501840108
:101CC0000E941A0E1F910F91FF90EF90DF90CF901E
:101CD000BF90AF909F908F900895EF92FF920F93D7
:101CE0001F93CF93DF937C01EC01C054DF4F8881B9
:101CF0009981877F99838883C70168EE75E040EFFB
:101D000055E023EF35E001E010E00E942D0E88231E
:101D100011F0823029F488819981886099838883C1
:101D200080EC90E0E80EF91EF70180819181A3E03C
:101D300096958795AA95E1F780958170DF91CF916F
:101D40001F910F91FF90EF9008950F931F9300E064
:101D500010E00E942D0E1F910F910895BF92CF9217
:101D6000DF92EF92FF920F931F93CF93DF93EC01DB
:101D70007B01B42E8EE190E061E070E00E94822849
:101D80006C01009711F48FEFB9C08E0100541F4F02
:101D9000D8018D919C9111979D7F8D939C93C852F2
:101DA000DD4F8881C85DD240882309F09AC08981BF
:101DB000882319F0813069F506C0C6016FEC76E022
:101DC0000E94C72926C0EDB7FEB738970FB6F89422
:101DD000FEBF0FBEEDBF3196ADB7BEB71296DC9217
:101DE000CE92119788ED96E0938382838FEC96E0F4
:101DF000958384838B2D90E0C096978386830E9481
:101E0000DC29EDB7FEB738960FB6F894FEBF0FBECB
:101E1000EDBFCE01B6014EED56E023EF35E00E9456
:101E2000A50E882311F0823061F4FE01E054FF4FCB
:101E300080819181926091838083C6010E944B29A9
:101E400049C08DB79EB708970FB6F8949EBF0FBED6
:101E50008DBFEDB7FEB73196ADB7BEB71296DC9227
:101E6000CE92119780EE96E093838283F582E4828E
:101E70008AE190E0978386830E94DC29EDB7FEB764
:101E800038960FB6F894FEBF0FBEEDBFFE01EC52C0
:101E9000FF4FC60160810E94D224CE0165EE76E03C
:101EA0004DEE56E024E130E000E010E0EE24FF24A7
:101EB0000E94420C182FC6010E944B29112311F0D9
:101EC000123051F4FE01E054FF4F80819181926005
:101ED0009183808380E012C080E0113079F481E04A
:101EE0000DC0CC52DF4FC70168810E94D224D801B7
:101EF00011962C91822F869580958170DF91CF91DC
:101F00001F910F91FF90EF90DF90CF90BF900895B9
:101F100040E00E94AE0E08955F926F927F928F9282
:101F20009F92AF92BF92CF92DF92EF92FF920F9368
:101F30001F93CF93DF935C01562EF42E3901480195
:101F400088E290E061E070E00E948228EC01009756
:101F500011F48FEF31C2F501E054FF4F8081918180
:101F60008F7791838083D50111968C91882321F0FE
:101F7000813009F0F2C150C1B1E05B1609F474C0C0
:101F80005B1648F0E2E05E1609F4B5C1F3E05F16B7
:101F900009F0E3C19EC000D000D000D0EDB7FEB77D
:101FA0003196ADB7BEB71296DC93CE93119785E804
:101FB00096E09383828387EF96E0958384830E94E3
:101FC000DC29EDB7FEB736960FB6F894FEBF0FBE0C
:101FD000EDBFC501BE0140EF55E029E336E00E94A8
:101FE000A50EC82E8DB79EB748970FB6F8949EBF22
:101FF0000FBE8DBFEDB7FEB73196ADB7BEB7129627
:10200000DC93CE93119784E097E0938382838BE1F6
:1020100097E09583848322E230E03783268386E24B
:1020200097E0918780873387228735872487778653
:102030006686318B208B338B228B158B048B378BF1
:10204000268B0E94DC29EDB7FEB778960FB6F89480
:10205000FEBF0FBEEDBFC501BE0140EF55E023EF4F
:1020600035E00E94A50ED6C08DB79EB748970FB633
:10207000F8949EBF0FBE8DBFEDB7FEB73196ADB7DA
:10208000BEB71296DC93CE93119784E097E09383CA
:1020900082838BE197E09583848322E230E037836B
:1020A00026838AE297E09187808733872287358766
:1020B000248777866686318B208B338B228B158B1A
:1020C000048B378B268B0E94DC29EDB7FEB7789600
:1020D00003C100D000D000D0EDB7FEB73196ADB748
:1020E000BEB71296DC93CE9311978BEC96E0938358
:1020F0008283A7EFEA2EA6E0FA2EF582E4820E9400
:10210000DC29EDB7FEB736960FB6F894FEBF0FBECA
:10211000EDBFC501BE0140EF55E029E336E00E9466
:10212000A50ED82E8DB79EB748970FB6F8949EBFD0
:102130000FBE8DBFEDB7FEB73196ADB7BEB71296E5
:10214000DC93CE93119784E097E0938382838BE1B5
:1021500097E09583848302E210E01783068386E28A
:1021600097E0918780871387028715870487778692
:102170006686118B008B138B028B958A848A178B52
:10218000068B0E94DC29EDB7FEB778960FB6F8945F
:10219000FEBF0FBEEDBFC501BE0140EF55E023EF0E
:1021A00035E00E94A50EC82E8DB79EB742970FB698
:1021B000F8949EBF0FBE8DBFEDB7FEB73196ADB799
:1021C000BEB71296DC93CE93119785E497E0938384
:1021D0008283F582E4821783068371866086138783
:1021E00002871587048797868686118B008B0E944D
:1021F000DC29EDB7FEB772960FB6F894FEBF0FBE9E
:10220000EDBFC501BE0140EF55E029E336E00E9475
:10221000A50ECD28C82AA2C0F1E05F1639F15F16DD
:1022200028F082E0581609F098C065C0ADB7BEB777
:102230005A970FB6F894BEBF0FBEADBFEDB7FEB74D
:1022400031961296DC93CE93119787E597E09383AE
:1022500082838BE197E095838483F682178222E262
:1022600030E03187208786E297E021C08DB79EB7A6
:102270004A970FB6F8949EBF0FBE8DBFEDB7FEB75D
:102280003196ADB7BEB71296DC93CE93119787E522
:1022900097E0938382838BE197E095838483F68232
:1022A000178222E230E0318720878AE297E0938725
:1022B00082873587248737872687718A608A338BA0
:1022C000228B358B248B978A868A318F208F0E94B0
:1022D000DC29EDB7FEB77A960FB6F894FEBF0FBEB5
:1022E000EDBFC501BE0140EF55E023EF35E00E9490
:1022F000A50EC82E33C08DB79EB70C970FB6F894B5
:102300009EBF0FBE8DBFEDB7FEB73196ADB7BEB75E
:102310001296DC93CE9311978EE297E0938382839B
:1023200089E397E09583848382E290E097838683B4
:1023300091868086938782870E94DC29EDB7FEB75D
:102340003C960FB6F894FEBF0FBEEDBFC501BE01AF
:1023500040EF55E029E336E0CACFCC24CE010E94FD
:102360004B29F2E0CF16C9F083E0C816B1F0CC20BB
:10237000A1F091E09515D8F0C50161E777E04CE751
:1023800057E024E130E000E010E0E5E0EE2EF12C33
:102390000E94420CA2E0CA1651F4F501E054FF4F2E
:1023A0008081918180689183808380E005C080E096
:1023B000B1E0CB1609F481E0DF91CF911F910F912D
:1023C000FF90EF90DF90CF90BF90AF909F908F9055
:1023D0007F906F905F9008950F931F93FA0189018A
:1023E00040E09F010E948C0F1F910F910895EF9282
:1023F000FF920F931F93CF93DF938C0184E690E0BD
:1024000061E070E00E948228EC01009711F48FEFE8
:102410004BC020ECE22EF12CE00EF11ED7018D9185
:102420009C9111979B7F8D939C93EDB7FEB73A9744
:102430000FB6F894FEBF0FBEEDBF3196ADB7BEB775
:102440001296DC93CE9311978CE997E09383828365
:1024500088EA97E09583848382EB97E0978386836D
:10246000918780870E94DC29EDB7FEB73A960FB6B8
:10247000F894FEBF0FBEEDBFC801BE0140EF55E0AE
:1024800029E336E00E94A50E182FCE010E944B29A9
:10249000113011F481E008C0D7018D919C91119702
:1024A00094608D939C9380E0DF91CF911F910F9169
:1024B000FF90EF90089565EF78E04DEF58E027E04A
:1024C00039E00E94A50E90E0813009F491E0892F57
:1024D00008956F927F928F929F92AF92BF92CF9208
:1024E000DF92EF92FF920F931F93CF93DF936C01D4
:1024F000390158014701A2E0EA2EF12CE80EF91E3D
:102500008DB79EB708970FB6F8949EBF0FBE8DBFCC
:10251000EDB7FEB73196ADB7BEB71296FC92EE920C
:10252000119788ED95E09383828375836483578345
:1025300046830E94DC29EDB7FEB738960FB6F894B3
:10254000FEBF0FBEEDBF86010C521F4FD8018C910C
:102550000E942B24C0E0D0E00EC0209729F4C701D0
:10256000F80160810E94D2246CED75E080E090E07B
:102570000E947D032196D8018C910E94CC23892B47
:1025800039F4CA15DB0524F48114910431F7E7CF3F
:10259000C601B301A5019E0100E010E00E94B30A4C
:1025A000DF91CF911F910F91FF90EF90DF90CF902F
:1025B000BF90AF909F908F907F906F900895EF9213
:1025C000FF920F931F9378010AE010E00E946912B6
:1025D0001F910F91FF90EF900895AF92BF92CF920D
:1025E000DF92EF92FF920F931F936C015A018901C2
:1025F00082E0E82EF12CEC0CFD1C00D000D000D0C5
:10260000EDB7FEB73196ADB7BEB71296FC92EE921B
:10261000119780EE95E093838283758364830E9493
:10262000DC298DB79EB706960FB6F8949EBF0FBEF5
:102630008DBFC601B70145EE55E095010E94DF123E
:102640001F910F91FF90EF90DF90CF90BF90AF90D0
:1026500008950F931F93CF93DF938C01EC01C05427
:10266000DF4F888199818F7D99838883C80161E1DB
:1026700079E040EF55E021E030E00E94ED12882340
:1026800011F0823029F4888199818062998388834E
:1026900000541F4FF8018081918125E09695879520
:1026A0002A95E1F780958170DF91CF911F910F916D
:1026B000089520E030E00E94ED120895EF92FF921D
:1026C0001F93CF93DF937C01162F8EE190E061E0A2
:1026D00070E00E948228EC01009711F48FEF87C010
:1026E000F701E054FF4F808191819E7F9183808329
:1026F000183099F400D000D000D0EDB7FEB7319675
:10270000ADB7BEB71296DC93CE93119785E896E0ED
:102710009383828389E397E01BC0D70111968C9144
:10272000882321F0813009F043C01AC000D000D0C6
:1027300000D0EDB7FEB73196ADB7BEB71296DC93B9
:10274000CE93119785E896E09383828389E299E09E
:10275000958384830E94DC29EDB7FEB7369623C0AB
:102760008DB79EB708970FB6F8949EBF0FBE8DBF6A
:10277000EDB7FEB73196ADB7BEB71296DC93CE93E8
:10278000119784E399E09383828389E299E09583AA
:102790008483812F90E0C096978386830E94DC29F2
:1027A000EDB7FEB738960FB6F894FEBF0FBEEDBF7B
:1027B000C701BE014BE359E00E945913182F88232B
:1027C00011F0823069F4F701E054FF4F808191816C
:1027D000916091838083CE010E944B2980E007C0E5
:1027E000CE010E944B2980E0113009F481E0DF9195
:1027F000CF911F91FF90EF90089560E00E945E13CB
:102800000895CF92DF92EF92FF920F931F93DF9381
:10281000CF93CDB7DEB7C456D0400FB6F894DEBF25
:102820000FBECDBF7C01D62EC42EFC01E853FD4F58
:1028300080E011928F5F8031E1F7870100541F4FD4
:10284000D8018D919C9111978F7B8D939C93C7019B
:102850006EE479E040EF55E029E336E00E94A50EF2
:10286000813011F0F80142C0CE01019627E539E030
:10287000CC2079F400D000D000D0EDB7FEB731966F
:10288000ADB7BEB712969C938E93119785E896E0EC
:102890000EC000D000D000D0EDB7FEB73196ADB776
:1028A000BEB712969C938E9311978BEC96E0938310
:1028B0008283358324830E94DC29EDB7FEB73696E8
:1028C0000FB6F894FEBF0FBEEDBFC701BE016F5F2C
:1028D0007F4F40EF55E029E336E00E94A50E8823A4
:1028E00011F0823051F4F701E054FF4F8081918163
:1028F00080649183808380E0A5C088ED92E0E80E3B
:10290000F91ED701CC92E8E2FDEFEE0EFF1EC701E3
:1029100061E679E040EF55E00E945913182F8823B3
:1029200011F3823001F3C7010E945B128130D9F7A5
:10293000DD2021F0F1E0DF1669F404C0C7016AE68A
:1029400079E003C0C70164E779E040EF55E00E94F9
:102950005913182F112339F2123029F2D701119689
:10296000DC92EDB7FEB778970FB6F894FEBF0FBEB6
:10297000EDBF31968E010F5F1F4FADB7BEB71296F8
:102980001C930E93119784E097E0938382838EE7E4
:1029900099E09583848322E230E03783268385E8BB
:1029A00099E091878087338722873587248789E854
:1029B00099E097878687318B208B338B228B958B81
:1029C000848B378B268B0E94DC29EDB7FEB7789677
:1029D0000FB6F894FEBF0FBEEDBFC701B80140EFC0
:1029E00055E029E336E00E94A50E882309F47BCF49
:1029F000823009F478CFC7016AE879E040EF55E00A
:102A000029E336E00E94A50E882309F46CCF8230BA
:102A100009F469CFC7010E94250A882309F463CF0E
:102A2000C7010E94F711F701E054FF4F813009F010
:102A30005DCF8081918146E0969587954A95E1F733
:102A400080958170CC59DF4F0FB6F894DEBF0FBE72
:102A5000CDBFCF91DF911F910F91FF90EF90DF904D
:102A6000CF900895CF93DF93EC01C054DF4F2881BE
:102A700039812F7E3983288363E27AE040EF55E085
:102A80000E945913282F882329F0888199812230A8
:102A900041F402C08881998180619983888380E0B4
:102AA00007C024E0969587952A95E1F78095817077
:102AB000DF91CF910895FC01EC52FF4F80810E947D
:102AC0008A2585E290E160E040E00E946009089577
:102AD000EF92FF920F931F938C0191EDE92EF12C51
:102AE000E00EF11E80E091EEF7019183808385E294
:102AF00090E10E944709F7016081718180E090E0D8
:102B00000C521F4FF80140810E94A8251F910F9180
:102B1000FF90EF9008950F931F93CF93DF93EC01F5
:102B20008C010C521F4F83E89CE0F80160810E94E9
:102B3000D2248DE0F80160810E94C1248AE0F8016E
:102B400060810E94C1246AE070E080E090E00E9411
:102B50007D03CE0160EF75E042E050E020E030E020
:102B600000E010E00E94B30A813011F4188202C024
:102B700081E08883DF91CF911F910F910895FF929B
:102B80000F931F93CF93DF93EC01F62E8C0100542B
:102B90001F4FF801808191818E7F91838083F2E0C5
:102BA0006F1709F45FC0F61730F0662389F081E0F3
:102BB000681761F447C0E4E06E1709F46CC06E1743
:102BC00008F458C0F5E06F1709F481C020E09BC0FD
:102BD000CE010E948B158AE261E00E94B9048AE26C
:102BE00061E00E94D70488818130A1F460ED77E034
:102BF00080E090E00E947D038AE260E00E94D704BA
:102C000064EF71E080E090E00E947D0303C0CE019C
:102C10000E948B1588818130D1F3CE0166E87CE07B
:102C200040EF55E023EF35E00E94A50E282F8130BC
:102C3000A9F0813018F0823009F065C0FE01E0543F
:102C4000FF4F3FC0CE0166E87CE040EF55E023EF48
:102C500035E00E94A50E282F813049F5CD52DF4F77
:102C6000288351C0CE016EE87CE040EF55E023EFB1
:102C700035E018C0CE0166E97CE040EF55E023EF77
:102C800035E00E94A50E282F813089F4CD52DF4F08
:102C900083E0888338C0CE016EE97CE040EF55E0E8
:102CA00029E336E00E94A50E282F813029F021303B
:102CB00038F0223041F504C0CD52DF4FF88223C0F6
:102CC000F801808191818160918380831CC08AE2B8
:102CD00061E00E94B9048AE261E00E94D70460EDDD
:102CE00077E080E090E00E947D038AE260E00E944D
:102CF000D70464E670E080E090E00E947D03CD524E
:102D0000DF4FF88221E0822FDF91CF911F910F9149
:102D1000FF9008950F931F938C0165E00E94BF15EB
:102D2000C8010E945B158091E014823051F485E166
:102D300095E10E94F1168EEC94E160E141E00E9481
:102D4000C8161F910F910895CF93DF93EC0161E0B6
:102D500070E080E090E00E94151F62E070E080E08B
:102D600090E00E94151F8091E014882331F48EECCE
:102D700094E161E041E00E94C816CE010E9468150E
:102D8000CE0160E00E94BF15DF91CF9108950895B4
:102D90000F931F93CF93DF93EC01042F6FA380E376
:102DA00061E00E94B9041FA1113019F0103199F4AB
:102DB0000DC080E361E00E94D704013019F482E085
:102DC0008A8B09C0002339F41A8B05C080E360E0C8
:102DD0000E94D7041A8ADF91CF911F910F91089515
:102DE000089589E261E00E94B90488E261E00E94EE
:102DF000B90487E499E10E94672608951092171597
:102E0000109219150895FC01009711F0118210829B
:102E10000895DF93CF9300D0CDB7DEB7DC010097E4
:102E200081F16230710568F1ED91FC911197660FA7
:102E3000771F80E090E016962D913D914D915C9129
:102E40001997620F731F841F951F0190F081E02D69
:102E5000AE014F5F5F4F22E030E00995882389F093
:102E600029813A812115310571F08FEF273F38070D
:102E700041F0C9014096079720F08FEF283F3807AF
:102E800010F020E030E0C9010F900F90CF91DF915A
:102E90000895FC01009711F01182108208952F927D
:102EA0003F924F925F926F927F928F929F92AF92DA
:102EB000BF92CF92DF92EF92FF920F931F93DF9317
:102EC000CF93CDB7DEB72A970FB6F894DEBF0FBE0B
:102ED000CDBF2C017A8369835C834B83009709F40F
:102EE00009C1672B09F406C1452B09F403C1DC01B4
:102EF0009D96AD90BD90CD90DC90D09795962D91FC
:102F00003D914D915C919897EB81FC81CF01A0E0C0
:102F1000B0E08A0D9B1DAC1DBD1D281739074A075F
:102F20005B0740F4B9016A197B097C836B83672BCB
:102F300009F4E3C0D201ED91FC911197208831880A
:102F4000D196ED91FC91D297FA87E987EF2BF1F5B5
:102F500093962D913C9194973A872987232B39F4A6
:102F6000A114B104C104D10409F4C7C0C3C0A114A1
:102F7000B104C104D10451F18601750131018824E5
:102F8000992466277727CB0166197709880999095B
:102F90006D837E838F83988714C0D2018D919C911D
:102FA00069857A850E9409179A878987892B09F490
:102FB000A1C06D817E818F819885E60EF71E081F66
:102FC000191FE614F7040805190538F708942108B5
:102FD0003108A220B3200894211C311CCB80DC8056
:102FE000D201ED90FC90E114F10409F1E985FA8534
:102FF000E230F105E0F03297BF0180E090E03296D8
:10300000FA87E987D70150962D913C91519740E07E
:1030100050E00E94F9279B01AC01F7018289938956
:10302000A489B589280F391F4A1F5B1F04C020E0FF
:1030300030E040E050E081010A191B09C016D106BA
:1030400008F48601D701ED91FC91C501A0E0B0E044
:10305000280F391F4A1F5B1F0190F081E02DCA0124
:10306000B90149815A8198010995882341F1C01A13
:10307000D10AC801A0E0B0E0F20125A536A547A518
:1030800050A9280F391F4A1F5B1FD2019D962D930F
:103090003D934D935C93D097C8018A0D9B1D82157B
:1030A0009305A0F08D919C9169857A850E940917FE
:1030B0009A878987892B41F4F20112AA11AA4B81C0
:1030C0005C814C195D091BC0AA24BB24E985FA85E3
:1030D000D201D296FC93EE93D197C114D10439F06A
:1030E00029813A81200F311F3A83298379CF4B817F
:1030F0005C8105C04FEF5FEF02C040E050E0CA01C5
:103100002A960FB6F894DEBF0FBECDBFCF91DF91E8
:103110001F910F91FF90EF90DF90CF90BF90AF90F5
:103120009F908F907F906F905F904F903F902F90E7
:103130000895FC01009711F0118210820895FC019E
:10314000009711F480E0089583A194A196A785A724
:1031500010AA17A681E008952F923F924F925F9296
:103160006F927F928F929F92AF92BF92CF92DF9297
:10317000EF92FF920F931F93DF93CF93CDB7DEB7FC
:10318000AA970FB6F894DEBF0FBECDBF4C01DB018E
:10319000009709F4B5C06115710509F4B1C0FC01CF
:1031A00060807180F30120883188FC01A5A4B6A459
:1031B00027A530A92215330508F07EC0AE014F5F68
:1031C0005F4F86E0FA0111928A95E9F78BE2FB01E5
:1031D00011928A95E9F7A114B10409F074C0F301C2
:1031E0002288338886899789281A390A6CC0720127
:1031F00000E010E0A114B10441F4D30156966D91A2
:103200007D918D919C91599724C061147104D9F0DE
:10321000B2E0AB16B104B8F0F3012089318940E087
:1032200050E06FA178A589A59AA50E94F9279B0176
:10323000AC01F30182899389A489B589280F391FCC
:103240004A1F5B1F04C020E030E040E050E0CA01AC
:10325000B9016E0D7F1D801F911F1C821B82D3013F
:10326000ED91FC918101041915090280F381E02D93
:10327000AE01495F5F4F20E230E0AAE9EA2EA9E102
:10328000FA2E6E010894C11CD11C09958823C1F146
:103290008B819C81480E591E4214530430F1C301A6
:1032A000B5010E9409175C0120E030E0009769F445
:1032B0008E818823F1F4F40183A194A196A785A7B8
:1032C00010AA17A61DC0BA83A98329018EEF9FEF0C
:1032D000A80EB91EC501A0E0B0E08FA398A7A9A7CA
:1032E000BAA7A2E0B0E0AA0EBB1E8E81882309F423
:1032F0007ECFF401B6A6A5A650AA47A68E8101C02E
:1033000080E0AA960FB6F894DEBF0FBECDBFCF9176
:10331000DF911F910F91FF90EF90DF90CF90BF90C2
:10332000AF909F908F907F906F905F904F903F9065
:103330002F900895CF92DF92EF92FF920F931F93F9
:10334000DF93CF93CDB7DEB72D970FB6F894DEBFDE
:103350000FBECDBFDC016A017B018901F90140810B
:103360005181828193818096938382839C91953E43
:1033700011F0992319F4F8011482EEC01B968C9178
:103380001B978F3009F053C0F9019481992329F0DC
:103390001D968C911D97981779F08BE2FA01119286
:1033A0008A95E9F71D968C911D97F8018483FA019F
:1033B000C7A2D0A6E1A6F2A68C9190E08F73907080
:1033C00001972DE030E0829FB001839F700D929FA6
:1033D000700D11249E012F5F3F4F09E61DE08DE027
:1033E000F80101908F01F90101929F018150C1F70D
:1033F000460F571F20E030E08E010F5F1F4F11C0B6
:10340000F801E20FF31F8081FD01E80FF11D8081BB
:10341000FA018193AF012F5F3F4F2D30310509F441
:103420009BC0C901860F971F4F9750F395C0FA01B3
:1034300080818823B9F0F901648121E030E0892F8F
:103440008695979599279795982BFD01E20FF31F85
:103450008081980F2F5F3F4F2B30310581F769171F
:1034600009F460C08BE2FA0111928A95E9F7FA013A
:10347000C7A2D0A6E1A6F2A67D019A016D0160E087
:10348000F60190819032C1F0F90190831C968C91E5
:103490001C9783FF09C0F6018081813428F08B35A9
:1034A00018F4905EF90190836F5F0894C11CD11CE1
:1034B0002F5F3F4F683021F7FA018081853011F48A
:1034C00085EE808318968C911897803239F1FA0135
:1034D000E60FF11D8EE28083262F2F5F362F3C5F93
:1034E000F70190859032C9F0BA01620F711DFB019E
:1034F00090831C968C911C9784FF09C0F7018085EE
:10350000813428F08B3518F4905EFB0190832F5F97
:103510000894E11CF11C231719F7622FFA01E60F3A
:10352000F11D10821B968C911B97FA0180A35A966D
:103530008D919C915B9792A381A35C968D919D91B7
:103540000D90BC91A02D83A394A3A5A3B6A381E065
:10355000F801858380E001C081E02D960FB6F894D4
:10356000DEBF0FBECDBFCF91DF911F910F91FF90B6
:10357000EF90DF90CF9008952F923F924F925F92FD
:103580006F927F928F929F92AF92BF92CF92DF9273
:10359000EF92FF920F931F93DF93CF93CDB7DEB7D8
:1035A000A8970FB6F894DEBF0FBECDBF98A78FA324
:1035B000009709F45CC1DC0114968D919C911597DC
:1035C000892B09F454C116968D919C911797892BDC
:1035D00009F44DC168C1EBE1F5E18CE1DF011D9219
:1035E0008A95E9F7EFA1F8A5F0931C15E0931B1558
:1035F000218432844384548459E0220C331C441CBB
:10360000551C5A95D1F7C201B101655F7F4F8F4FAD
:103610009F4F0190F081E02DAE014F5F5F4F29E198
:1036200030E00995882309F445C1E981FA81FBA3BB
:10363000EAA32C813D81FB81FCA34E818F8198857B
:103640009EA38DA3E985FA856C857D856E887F882C
:10365000888C998C611471048104910431F4309741
:1036600009F428C13F01882499246115710509F4E2
:1036700021C1C901A0E0B0E08E8F9F8FA8A3B9A39C
:1036800080E090E0242F30E040E050E00E94F927F5
:103690006A8F7B8F8C8F9D8F840173012E8D3F8D60
:1036A00048A159A1E21AF30A040B150BE61AF70A0E
:1036B000080B190B8AA19BA101972DA13EA145E002
:1036C000220F331F4A95E1F7820F931F6AA17BA156
:1036D0000E94182880E090E0E61AF70A080B190B00
:1036E0008CA1282F30E040E050E0C801B7010E94D3
:1036F0003F2879018A0195EFE9169FE0F90690E0ED
:10370000090790E0190708F4D5C0A5EFEA16AFEF56
:10371000FA06A0E00A07A0E01A0728F486E0EFA165
:10372000F8A5808705C08BE0AFA1B8A518968C934B
:1037300088E1EDE1F5E1DF011D928A95E9F7EAA163
:10374000FBA15F01CC24DD24C401B301A6019501D6
:103750000E94F92760931D1570931E1580931F1505
:1037600090932015C601B5012E8D3F8D48A159A11A
:103770000E94F927260E371E481E591E2092211539
:10378000309222154092231550922415AFA1B8A56E
:1037900018968C91863029F064E070E080E090E02B
:1037A00004C062E070E080E090E022E030E040E0C1
:1037B00050E0E20EF31E041F151FA80197010E949E
:1037C000F9276093251570932615809327159093FC
:1037D00028154AA15BA150932A15409329155CA195
:1037E000852F90E0DC01EAA1FBA1AE9FC001AF9F55
:1037F000900DBE9F900D112490932C1580932B1546
:103800006A8D7B8D8C8D9D8DA60195010E94F92777
:1038100020912115309122154091231550912415A6
:10382000620F731F841F951F6093311570933215BB
:103830008093331590933415ADA1BEA19D0140E056
:1038400050E0B5E0220F331F441F551FBA95D1F742
:10385000620F731F841F951F60932D1570932E1593
:1038600080932F15909330152BE135E102C020E0B5
:1038700030E0C901A8960FB6F894DEBF0FBECDBFE9
:10388000CF91DF911F910F91FF90EF90DF90CF903C
:10389000BF90AF909F908F907F906F905F904F9070
:1038A0003F902F90089580911B1590911C15892BA6
:1038B000F1F691CE10921C1510921B15D8CFCF9314
:1038C000DF93AC01DB01009789F16115710571F19E
:1038D00090968C91909784FF29C080916A15909161
:1038E0006B15892B19F4EAE6F5E108C080919B1568
:1038F00090919C15892BD1F4EBE9F5E19F012E5FA6
:103900003F4FBD018BE2EB010990BE01E901099235
:103910009E018150C1F75183408391968D919C9176
:10392000929796A785A710AA17A602C0E0E0F0E03C
:10393000CF01DF91CF910895CF93DF939C01FB01DD
:10394000009731F06115710519F080A184FF23C043
:1039500020E030E0C901DF91CF910895C9E3D5E1BE
:10396000DF018BE20D9009928150E1F73093381519
:1039700020933715109264151092651510926615F4
:103980001092671581A192A1909369158093681593
:1039900027E335E1DFCF8091371590913815892BDA
:1039A000B9F6DCCF6F927F928F929F92AF92BF92C7
:1039B000CF92DF92EF92FF920F931F93CF93DF93FB
:1039C0004C01EB017A01009709F467C0611571059C
:1039D00009F463C08881882309F45FC0411551054B
:1039E00009F45BC08F3209F421968BE2F701119242
:1039F0008A95E9F780E1F70180A3370101C0E5016D
:103A00008881882309F44BC0C401B7010E945F1C60
:103A10006C01009709F441C0CE016FE270E00E9492
:103A2000B329009739F0482F4C1B5C010894A11C66
:103A3000B11C2AC0FE0101900020E9F731974E2FFA
:103A40004C1B5E01A40EB11C1FC0F30101900020AD
:103A5000E9F73197E619F709E017F107B9F4CE0154
:103A6000B301A8010E94CE29009781F4F6011182CA
:103A700010820C0F1D1FF8018081882381F0F7014F
:103A800080A184FDBCCF09C0042F10E0C601B7019E
:103A90000E94AC188823C9F612C080E001C081E002
:103AA000DF91CF911F910F91FF90EF90DF90CF901A
:103AB000BF90AF909F908F907F906F900895F60188
:103AC000118210829DCFF894883028F58330A1F0C0
:103AD000843028F4813061F0823060F407C0863091
:103AE00079F0873079F0843071F408C0E8980BC021
:103AF000E99809C0EA9807C0EB9805C0EC9803C0A4
:103B0000EE9801C0EF98E82FF0E0EE0FFF1FE453AE
:103B1000FA4E11821082789408951F920F920FB678
:103B20000F920BB60F9211242F933F934F935F93F5
:103B30006F937F938F939F93AF93BF93EF93FF9375
:103B40008091CC159091CD15892B29F0E091CC1561
:103B5000F091CD150995FF91EF91BF91AF919F9194
:103B60008F917F916F915F914F913F912F910F9026
:103B70000BBE0F900FBE0F901F9018951F920F92C3
:103B80000FB60F920BB60F9211242F933F934F93C2
:103B90005F936F937F938F939F93AF93BF93EF93B5
:103BA000FF938091CE159091CF15892B29F0E0914C
:103BB000CE15F091CF150995FF91EF91BF91AF917F
:103BC0009F918F917F916F915F914F913F912F9135
:103BD0000F900BBE0F900FBE0F901F9018951F9265
:103BE0000F920FB60F920BB60F9211242F933F93A3
:103BF0004F935F936F937F938F939F93AF93BF93F5
:103C0000EF93FF938091D0159091D115892B29F0D6
:103C1000E091D015F091D1150995FF91EF91BF91E9
:103C2000AF919F918F917F916F915F914F913F9154
:103C30002F910F900BBE0F900FBE0F901F901895F5
:103C40001F920F920FB60F920BB60F9211242F9363
:103C50003F934F935F936F937F938F939F93AF9314
:103C6000BF93EF93FF938091D2159091D315892B39
:103C700029F0E091D215F091D3150995FF91EF91BC
:103C8000BF91AF919F918F917F916F915F914F9174
:103C90003F912F910F900BBE0F900FBE0F901F9072
:103CA00018951F920F920FB60F920BB60F92112418
:103CB0002F933F934F935F936F937F938F939F9334
:103CC000AF93BF93EF93FF938091D4159091D51547
:103CD000892B29F0E091D415F091D5150995FF9124
:103CE000EF91BF91AF919F918F917F916F915F9174
:103CF0004F913F912F910F900BBE0F900FBE0F90E1
:103D00001F9018951F920F920FB60F920BB60F923D
:103D100011242F933F934F935F936F937F938F93D0
:103D20009F93AF93BF93EF93FF938091D61590919C
:103D3000D715892B29F0E091D615F091D715099563
:103D4000FF91EF91BF91AF919F918F917F916F9173
:103D50005F914F913F912F910F900BBE0F900FBE2F
:103D60000F901F9018951F920F920FB60F920BB6DF
:103D70000F9211242F933F934F935F936F937F93F1
:103D80008F939F93AF93BF93EF93FF938091D81539
:103D90009091D915892B29F0E091D815F091D9157A
:103DA0000995FF91EF91BF91AF919F918F917F9175
:103DB0006F915F914F913F912F910F900BBE0F909C
:103DC0000FBE0F901F9018951F920F920FB60F9273
:103DD0000BB60F9211242F933F934F935F936F93E2
:103DE0007F938F939F93AF93BF93EF93FF938091B4
:103DF000DA159091DB15892B29F0E091DA15F09115
:103E0000DB150995FF91EF91BF91AF919F918F9134
:103E10007F916F915F914F913F912F910F900BBECA
:103E20000F900FBE0F901F901895EF92FF920F9377
:103E30001F937B018C01F894CB0181709070892BCA
:103E400019F082E00E94631DE1FE03C083E00E943E
:103E5000631DE2FE03C082E00E94631DE3FE03C017
:103E600083E00E94631DE4FE03C082E00E94631DA4
:103E7000F3FE03C082E00E94631DE5FE03C084E000
:103E80000E94631DF4FE03C082E00E94631DF5FEE4
:103E900003C082E00E94631DF6FE03C083E00E941F
:103EA000631D8091760D9091770DA091780DB09162
:103EB000790DE094F094009510958E219F21A02318
:103EC000B1238093760D9093770DA093780DB093E6
:103ED000790D78941F910F91FF90EF900895FC0158
:103EE000009711F480E00895108681E008958F9284
:103EF0009F92AF92BF92CF92DF92EF92FF920F9379
:103F0000DF93CF93CDB7DEB760970FB6F894DEBFDF
:103F10000FBECDBF7C016B015A014901009709F426
:103F200093C06115710509F48FC004300CF08CC08A
:103F300007FD1DC0602F772767FD7095E4E0660FD1
:103F4000771FEA95E1F762547E4F882777FD8095C9
:103F5000982FAE014F5F5F4F20E130E0F7010995E8
:103F6000882309F471C08D81882309F46DC0809184
:103F7000E415882309F068C07CC08D818093E41526
:103F80002A8530E040E050E0542F432F322F222783
:103F90008B8590E0A0E0B0E0DC0199278827282BF2
:103FA000392B4A2B5B2B898590E0A0E0B0E0282BD1
:103FB000392B4A2B5B2B8C8590E0A0E0B0E0B82F2A
:103FC000AA2799278827282B392B4A2B5B2B20934C
:103FD000E5153093E6154093E7155093E8152E85C7
:103FE00030E040E050E0542F432F322F22278F85BE
:103FF00090E0A0E0B0E0DC0199278827282B392B3E
:104000004A2B5B2B8D8590E0A0E0B0E0282B392B6C
:104010004A2B5B2B888990E0A0E0B0E0B82FAA275C
:1040200099278827282B392B4A2B5B2B2093E915BE
:104030003093EA154093EB155093EC1503C08FEFC6
:104040008093E4159F0102C020E030E0C901609632
:104050000FB6F894DEBF0FBECDBFCF91DF910F91A9
:10406000FF90EF90DF90CF90BF90AF909F908F9098
:104070000895ECEDF5E181E1DF011D928A95E9F704
:10408000F092DD15E092DC15D092DF15C092DE15BE
:10409000B092E115A092E0159092E3158092E2159E
:1040A00007FF6BCFCCCF282F8FEF8EBD0DB407FE4F
:1040B000FDCF8DB58F778DBD8EB5822F80648EBD7F
:1040C0000DB407FEFDCF8DB58F778DBD872F992756
:1040D000AA27BB278EBD0DB407FEFDCF8DB58F7708
:1040E0008DBDCB01AA27BB278EBD0DB407FEFDCF2A
:1040F0008DB58F778DBDBB27A72F962F852F8EBDB2
:104100000DB407FEFDCF8DB58F778DBD4EBD0DB4BF
:1041100007FEFDCF8DB58F778DBD222319F0283096
:1041200069F406C085E98EBD0DB407FEFDCF0BC056
:1041300087E88EBD0DB407FEFDCF05C08FEF8EBDA5
:104140000DB407FEFDCF8DB58F778DBD90E02FEFBD
:104150002EBD0DB407FEFDCF8DB58F778DBD8EB50D
:104160008F3F19F49F5F9A3099F708952F923F92ED
:104170004F925F926F927F928F929F92AF92BF9277
:10418000CF92DF92EF92FF920F931F93CF93DF9323
:104190004B015C012A01390133243A9422242394EF
:1041A000A1C0E401D170CE01A0E0B0E085017401AE
:1041B000E81AF90A0A0B1B0BC12CB2E0DB2ECC1A51
:1041C000DD0A6C147D0408F463018091ED17909171
:1041D000EE17A091EF17B091F017E816F9060A074D
:1041E0001B07F9F00E948D21882309F480C02097D5
:1041F00029F480E0C81682E0D80658F4C801B70157
:104200004DEE55E120E032E00E94A721882309F419
:104210006EC0E092ED17F092EE170093EF17109337
:10422000F0178DEE481685E1580671F09E01235176
:104230003A4EC901B201A6010E94A3291092F117BA
:104240006C147D0409F455C0289888E1B801A701D1
:104250000E945320882311F0289A49C08EEF8EBD0A
:104260000DB407FEFDCF8DB58F778DBDEDEEF5E179
:1042700081918EBD0DB407FEFDCF8DB58F778DBDBD
:1042800087E1ED3EF807A1F73EBC0DB407FEFDCF78
:104290008DB58F778DBD3EBC0DB407FEFDCF8DB5BE
:1042A0008F778DBD3EBC0DB407FEFDCF8DB58F77EA
:1042B0008DBD8EB58F3FB1F78EBD0DB407FEFDCF1E
:1042C0008DB58F778DBD8EB5289A4C0C5D1CC601BF
:1042D000A0E0B0E0880E991EAA1EBB1E6C187D08D7
:1042E0002092F1176114710409F05BCF02C080E0E5
:1042F00001C081E0DF91CF911F910F91FF90EF906E
:10430000DF90CF90BF90AF909F908F907F906F90F5
:104310005F904F903F902F9008958091F1178823E0
:1043200011F081E008956091ED177091EE17809182
:10433000EF179091F0174DEE55E120E032E00E942A
:10434000B620882319F081E08093F11708953F92F9
:104350004F925F926F927F928F929F92AF92BF9295
:10436000CF92DF92EF92FF920F931F93CF93DF9341
:104370003B014C016A01290133243A948FC01FEF9D
:10438000A12E11E0B12EA620B720C501A0E0B0E01B
:1043900084017301E81AF90A0A0B1B0BC0E0D2E092
:1043A000CA19DB094C165D0608F4E2018091ED178D
:1043B0009091EE17A091EF17B091F017E816F9065B
:1043C0000A071B0709F457C00E948D21882309F4AE
:1043D0006AC0289881E1B801A7010E945320882370
:1043E00019F0289A80E05FC03EBC0DB407FEFDCFF7
:1043F0008DB58F778DBD8EB58E3FB1F7EDEEF5E1C2
:104400003EBC0DB407FEFDCF8DB58F778DBD8EB54B
:10441000808387E1EC3EF80711F03196F1CFE0920E
:10442000ED17F092EE170093EF171093F017950128
:1044300023513A4EC601B901AE010E94A3293EBCE8
:104440000DB407FEFDCF8DB58F778DBD8EB53EBC0B
:104450000DB407FEFDCF8DB58F778DBD8EB5289A33
:104460003EBC0DB407FEFDCFCC0EDD1E8DB58F77A3
:104470008DBD8EB50AC0950123513A4EC601B901D2
:10448000AE010E94A329CC0EDD1E4C1A5D0ACE019E
:10449000A0E0B0E0680E791E8A1E9B1E41145104F4
:1044A00009F06DCF81E0DF91CF911F910F91FF90C7
:1044B000EF90DF90CF90BF90AF909F908F907F90C4
:1044C0006F905F904F903F9008952F923F924F9240
:1044D0005F926F927F928F929F92AF92BF92CF9294
:1044E000DF92EF92FF920F931F93DF93CF9300D051
:1044F00000D0CDB7DEB74B015C013A013C832B8382
:104500002701DA82C98241155105A9F1211531052A
:1045100091F10217130778F1E114F10461F1190127
:104520003094219431083394021B130B6901EE245B
:10453000FF24C501B401A3012B813C810E94A72166
:104540008823C9F0C301B501A40129813A81F20190
:104550000995882391F0020D131D8B819C81800F9A
:10456000911F2B813C818217930738F08C0C9D1C86
:10457000AE1CBF1CDECF80E001C081E00F900F9029
:104580000F900F90CF91DF911F910F91FF90EF90BF
:10459000DF90CF90BF90AF909F908F907F906F9063
:1045A0005F904F903F902F9008950F931F93CF935C
:1045B000DF93389883E58CBD8DB58E7F8DBD229AB3
:1045C000219A209A23981092F21720E030E09FEF72
:1045D0009EBD0DB407FEFDCF8DB58F778DBD8EB519
:1045E0002F5F3F4F2A30310599F72898C0E0D0E07F
:1045F00080E040E050E060E070E00E945320182F1F
:10460000813039F081E0CF3FD80709F440C02196CE
:10461000EFCF87E340E050E060E070E00E9453207D
:1046200089E240E050E060E070E00E94532082FDAB
:1046300002C01093F2178091F217082F10E0037058
:104640001070C0E0D0E00115110549F087E340E0AB
:1046500050E060E070E00E94532089E201C081E0F8
:1046600040E050E060E070E00E94532080FF06C010
:104670008FE7CF3FD80759F02196E5CF80E140E0A2
:1046800052E060E070E00E945320882319F0289ADD
:1046900080E022C0289A8CB58C7F8CBD8DB581605E
:1046A0008DBD8FEF9FEFAFEFBFEF8093ED1790932E
:1046B000EE17A093EF17B093F01781E08093F117F6
:1046C00060E070E080E090E04DEE55E120E032E007
:1046D0000E94A721811181E0DF91CF911F910F915D
:1046E00008954F925F926F927F928F929F92AF92B6
:1046F000BF92CF92DF92EF92FF920F931F93CF93CF
:10470000DF935B016C014A01E90138012701411582
:10471000510571F10115110559F1FF2421153105DC
:1047200011F5FF24F3941FC0C401B601A501920145
:10473000F30109958C010097E9F0FF2019F4C817DF
:10474000D907B0F0C601B501A40198010E94B620B6
:10475000882371F0C801A0E0B0E0A80EB91ECA1EFF
:10476000DB1EC01BD10BFF20F9F62097E9F602C033
:1047700080E001C081E0DF91CF911F910F91FF9008
:10478000EF90DF90CF90BF90AF909F908F907F90F1
:104790006F905F904F900895882389F48091F3176C
:1047A0009091F41780509E4F2091F5173091F61795
:1047B000821B930B60E072E00E942C280895809188
:1047C000F7179091F81780589F4F2091F917309163
:1047D000FA17821B930B60E870E00E942C28089562
:1047E0008823D1F44091F5175091F6178091F31773
:1047F0009091F4178417950751F1FA01E55CF54E95
:104800002081CA01019660E072E00E942C289093FA
:10481000F6178093F51719C04091F9175091FA17C0
:104820008091F7179091F8178417950781F0FA0196
:10483000E554F64E2081CA01019660E870E00E94BE
:104840002C289093FA178093F91730E002C02FEFCD
:104850003FEFC9010895882349F41092F61710928A
:10486000F5171092F4171092F31708951092FA1793
:104870001092F9171092F8171092F71708951F92D7
:104880000F920FB60F920BB60F9211242F933F93F6
:104890004F935F936F937F938F939F93AF93BF9348
:1048A000EF93FF934091C600E091F317F091F41756
:1048B000CF01019660E072E00E942C289C0180915B
:1048C000F5179091F6172817390739F0E55CF54E82
:1048D00040833093F4172093F317FF91EF91BF912A
:1048E000AF919F918F917F916F915F914F913F9188
:1048F0002F910F900BBE0F900FBE0F901F90189529
:104900001F920F920FB60F920BB60F9211242F9396
:104910003F934F935F936F937F938F939F93AF9347
:10492000BF93EF93FF934091CE00E091F717F09182
:10493000F817CF01019660E870E00E942C289C01D6
:104940008091F9179091FA172817390739F0E55433
:10495000F64E40833093F8172093F717FF91EF91AD
:10496000BF91AF919F918F917F916F915F914F9187
:104970003F912F910F900BBE0F900FBE0F901F9085
:104980001895982F662339F48091C00085FFFCCFDD
:104990009093C60008958091C80085FFFCCF909346
:1049A000CE000895FC0110C03196662339F4809141
:1049B000C00085FFFCCF9093C60006C08091C80060
:1049C00085FFFCCF9093CE009081992369F70895DD
:1049D0002F923F924F925F926F927F928F929F920F
:1049E000AF92BF92CF92DF92EF92FF920F931F93FD
:1049F000DF93CF93CDB7DEB7A1970FB6F894DEBFA4
:104A00000FBECDBF6B017C0129013A0109A36115DD
:104A100071058105910591F4002341F48091C00056
:104A200085FFFCCF80E38093C6005BC08091C80007
:104A300085FFFCCF80E38093CE0053C08824992467
:104A400054011E010894211C311C8101080D191DFF
:104A5000C701B601A30192010E943F28F8016083BB
:104A60000894811C911CA11CB11CC701B601A301B3
:104A700092010E943F28C901DA016C017D01C11435
:104A8000D104E104F10409F79101280D391DBE019B
:104A90006F5F7F4FD501C4010197A109B109AC0136
:104AA000481959091BC0FA01E20FF31FE081EA30EF
:104AB00010F4E05D01C0E95CF9A1FF2339F48091B5
:104AC000C00085FFFCCFE093C60006C08091C800FF
:104AD00085FFFCCFE093CE00215030406217730772
:104AE00011F7A1960FB6F894DEBF0FBECDBFCF91E0
:104AF000DF911F910F91FF90EF90DF90CF90BF90CB
:104B0000AF909F908F907F906F905F904F903F906D
:104B10002F900895882371F488E00E945A048091B0
:104B2000C1008F7E8093C1008091C100877F8093F8
:104B3000C100089580E10E945A048091C9008F7ECF
:104B40008093C9008091C900877F8093C900089530
:104B5000EF92FF920F931F937B018C014423C1F5C9
:104B600088E00E942004C801B70122E030E040E064
:104B700050E00E946128205E3E45484F5F4FCA01C9
:104B8000B901A80197010E946128C901DA010197C2
:104B9000A109B109292F3A2F4B2F552747FD5A95C7
:104BA0000196A11DB11D2093C50081508093C400C2
:104BB0008091C10080618093C1008091C1008860B4
:104BC0008093C1008091C10080688093C10037C08C
:104BD00080E10E942004C801B70122E030E040E0FB
:104BE00050E00E946128205E3E45484F5F4FCA0159
:104BF000B901A80197010E946128C901DA01019752
:104C0000A109B109292F3A2F4B2F552747FD5A9556
:104C10000196A11DB11D2093CD0081508093CC0041
:104C20008091C90080618093C9008091C90088602B
:104C30008093C9008091C90080688093C9001F914A
:104C40000F91FF90EF900895FC0180EC92E1A0E0BD
:104C5000B0E080839183A283B38381E08483E755AE
:104C6000FF4F22E02083E95AF0401782168280E845
:104C700090E0918780871286238787EA9CE095AB36
:104C800084AB8DEA9CE097AB86AB84EB9CE091AF64
:104C900080AF88EB9CE093AF82AF8BEB9CE095AF4D
:104CA00084AF8DEB9CE097AF86AFE05CFF4F87EC65
:104CB0009CE08193919382ED9CE08193919310828B
:104CC00008958BEF97E10E942426089508950F938D
:104CD0001F938C010E947226F80110821F910F9180
:104CE0000895089558985998E9EBF0E08081816023
:104CF0008083808182608083ECEBF0E0808180683B
:104D0000808380818061808380818F7B80838081AC
:104D10008F7D80838081877F808380818460808392
:104D200080818E7F8083E4E6F0E080818F778083CE
:104D300008951F920F920FB60F920BB60F92112487
:104D40002F933F934F935F936F937F938F939F9393
:104D5000AF93BF93EF93FF938091B90090E0887F6A
:104D600090708036910509F4CAC081369105CCF562
:104D70008832910509F47BC089329105B4F4803101
:104D8000910509F46FC0813191053CF4009709F455
:104D900014C1089709F01AC165C08831910509F45A
:104DA00066C0809709F012C17DC08034910509F476
:104DB0008DC08134910544F48033910509F472C0AB
:104DC000C89709F003C1F5C08035910509F472C098
:104DD0008835910509F47FC08834910509F0F6C043
:104DE00086C08839910509F4E0C089399105ECF451
:104DF0008837910509F483C0893791054CF48836CA
:104E0000910509F47CC08037910509F0DFC077C0B7
:104E10008838910509F4C9C08039910509F475C035
:104E20008038910509F0D2C070C0803B910509F42B
:104E300093C0813B91054CF4803A910509F477C009
:104E4000883A910509F0C2C087C0803C910509F4F9
:104E5000B0C0883C910509F4ACC0883B910509F0CD
:104E6000B5C08FC0809149198093BB009CC09091C0
:104E70006E1980916F19981768F490916E19E92F47
:104E8000F0E0E25BF64E80818093BB009F5F9093E1
:104E90006E1989C085ED8093BC008091BC0084FDB3
:104EA000FCCF92C085ED8093BC008091BC0084FD56
:104EB000FCCF8AC080916E199091BB00E82FF0E082
:104EC000E25BF64E90838F5F80936E1990916E191E
:104ED00080916F1966C080916E199091BB00E82F88
:104EE000F0E0E25BF64E90838F5F80936E1985ED64
:104EF0008093BC008091BC0084FDFCCF65C083E042
:104F0000809348191092B2194EC08091B219803224
:104F100008F04BC08091B2199091BB00E82FF0E0EF
:104F2000EE56F64E90838F5F8093B2193CC080910D
:104F3000B219803230F4E091B219F0E0EE56F64E3C
:104F400010826091B219E0914C19F0914D1982E9EB
:104F500099E170E009952DC084E080934819109282
:104F6000901910929119E0914A19F0914B190995F5
:104F700080919119882329F481E0809391191092EE
:104F8000701990919019E92FF0E0E059F64E808168
:104F90008093BB009F5F909390199091901980919E
:104FA0009119981710F485EC01C085E88093BC0036
:104FB0000DC085EC8093BC0007C085ED8093BC00DC
:104FC0008091BC0084FDFCCF10924819FF91EF91B5
:104FD000BF91AF919F918F917F916F915F914F9111
:104FE0003F912F910F900BBE0F900FBE0F901F900F
:104FF0001895629FD001739FF001829FE00DF11D13
:10500000649FE00DF11D929FF00D839FF00D749F42
:10501000F00D659FF00D9927729FB00DE11DF91FEE
:10502000639FB00DE11DF91FBD01CF01112408954B
:10503000AA1BBB1B51E107C0AA1FBB1FA617B707BE
:1050400010F0A61BB70B881F991F5A95A9F78095DA
:105050009095BC01CD01089597FB092E07260AD033
:1050600077FD04D0E5DF06D000201AF47095619535
:105070007F4F0895F6F7909581959F4F0895A1E28F
:105080001A2EAA1BBB1BFD010DC0AA1FBB1FEE1FC2
:10509000FF1FA217B307E407F50720F0A21BB30B0D
:1050A000E40BF50B661F771F881F991F1A9469F789
:1050B00060957095809590959B01AC01BD01CF01E5
:1050C000089597FB092E05260ED057FD04D0D7DF93
:1050D0000AD0001C38F450954095309521953F4FEB
:1050E0004F4F5F4F0895F6F79095809570956195B5
:1050F0007F4F8F4F9F4F0895EE0FFF1F0590F49144
:10510000E02D09940F931F93CF93DF93689F800145
:10511000699F100D789F100D1124C8010E949E28D0
:10512000EC01009729F060E070E0A8010E94AC2932
:10513000CE01DF91CF911F910F910895CF93DF930F
:10514000BC018230910510F462E070E0A0913D1C3A
:10515000B0913E1CED01E0E0F0E040E050E021C005
:10516000888199818617970769F48A819B81309796
:1051700019F09383828304C090933E1C80933D1C5E
:10518000FE0134C06817790738F44115510519F04C
:105190008417950708F4AC01FE018A819B819C016C
:1051A000E9012097E9F641155105A9F1CA01861BCD
:1051B000970B049708F4BA01E0E0F0E02AC08D9163
:1051C0009C91119784179507F9F46417750781F47A
:1051D00012968D919C911397309719F09383828347
:1051E00004C090933E1C80933D1CFD0132964FC03D
:1051F000CA01861B970BFD01E80FF91F619371939C
:1052000002978D939C9343C0FD01828193819C0101
:10521000D9011097A1F680913B1C90913C1C892BE1
:1052200041F48091640D9091650D90933C1C8093A6
:105230003B1C4091660D5091670D4115510541F49D
:105240004DB75EB78091620D9091630D481B590B6D
:1052500020913B1C30913C1C24173507B0F4CA0147
:10526000821B930B8617970780F0AB014E5F5F4F51
:105270008417950750F0420F531F50933C1C4093E6
:105280003B1CF9016193719302C0E0E0F0E0CF01B3
:10529000DF91CF910895CF93DF93009709F450C029
:1052A000EC0122971B821A82A0913D1CB0913E1CFA
:1052B000109709F140E050E0AC17BD0708F1BB833F
:1052C000AA83FE0121913191E20FF31FAE17BF07B0
:1052D00079F48D919C911197280F391F2E5F3F4FC4
:1052E0003983288312968D919C9113979B838A838F
:1052F0004115510571F4D0933E1CC0933D1C20C054
:1053000012968D919C911397AD01009711F0DC01DD
:10531000D3CFFA01D383C28321913191E20FF31FDE
:10532000CE17DF0769F488819981280F391F2E5F16
:105330003F4FFA01318320838A819B81938382834B
:10534000DF91CF910895FB01DC0102C001900D9225
:1053500041505040D8F70895DC0101C06D93415091
:105360005040E0F70895FC018191861721F08823D1
:10537000D9F7992708953197CF010895FB01DC01F2
:105380008D91019080190110D9F3990B0895FB01BB
:10539000DC0101900D920020E1F70895FB01DC0192
:1053A0004150504030F08D910190801919F4002047
:1053B000B9F7881B990B08950F931F93DF93CF9331
:1053C000CDB7DEB72E970FB6F894DEBF0FBECDBFB8
:1053D0000D891E8986E08C831A8309838FEF9FE7EE
:1053E0009E838D839E01275E3F4FCE0101966F897C
:1053F000788DA9010E940D2A2F813885020F131F75
:10540000F80110822E960FB6F894DEBF0FBECDBF06
:10541000CF91DF911F910F9108952F923F924F925C
:105420005F926F927F928F929F92AF92BF92CF9234
:10543000DF92EF92FF920F931F93DF93CF93CDB73D
:10544000DEB72B970FB6F894DEBF0FBECDBF3C0181
:105450002B015A01FC0117821682838181FD03C052
:105460006FEF7FEFC6C19AE0892E1E010894211CC0
:10547000311CF3012381F20123FD859123FF8191EA
:105480002F01882309F4B2C1853239F423FD8591B7
:1054900023FF81912F01853229F490E0B3010E940E
:1054A000292CE7CF982FFF24EE249924FFE1FF1544
:1054B000D0F09B3269F09C3228F4903259F093324C
:1054C00091F40EC09D3249F0903369F441E024C05C
:1054D00052E0F52A84E0F82A28C098E0F92A25C08D
:1054E000E0E1FE2A22C0F7FC29C0892F80538A30D0
:1054F00070F4F6FE05C0989C902C1124980E15C0EF
:10550000E89CE02C1124E80EF0E2FF2A0EC09E3247
:1055100029F4F6FC6BC140E4F42A07C09C3619F468
:1055200050E8F52A02C0983649F4F20123FD95911E
:1055300023FF91912F01992309F0B8CF892F85542A
:10554000833018F08052833038F444E050E0A40EE9
:10555000B51E5FE359830FC0933631F0933779F06E
:10556000933509F056C020C0F5018081898342E05F
:1055700050E0A40EB51E610101E010E012C0F5017B
:10558000C080D180F6FC03C06FEF7FEF02C0692DB1
:1055900070E042E050E0A40EB51EC6010E941E2C31
:1055A0008C015FE7F52214C0F501C080D180F6FCC4
:1055B00003C06FEF7FEF02C0692D70E042E050E062
:1055C000A40EB51EC6010E94132C8C0150E8F52ACA
:1055D000F3FE07C01AC080E290E0B3010E94292CBC
:1055E000EA948E2D90E008171907A8F30EC0F60173
:1055F000F7FC8591F7FE81916F0190E0B3010E9465
:10560000292CE110EA94015010400115110579F799
:10561000EAC0943611F0993669F5F7FE08C0F50135
:10562000208131814281538184E090E00AC0F501FC
:10563000808191819C01442737FD4095542F82E061
:1056400090E0A80EB91E9FE6F92257FF09C05095B9
:105650004095309521953F4F4F4F5F4FE0E8FE2A30
:10566000CA01B901A1012AE030E00E94552CD82ED0
:10567000D21840C0953729F41F2D1F7E2AE030E054
:105680001DC01F2D197F9F3661F0903720F498358B
:1056900009F0ACC00FC0903739F0983709F0A6C0B8
:1056A00004C028E030E00AC0106114FD146020E15D
:1056B00030E004C014FD166020E132E017FF08C09E
:1056C000F501608171818281938144E050E008C0DE
:1056D000F50180819181BC0180E090E042E050E0E2
:1056E000A40EB51EA1010E94552CD82ED2188FE70A
:1056F000F82EF122F6FE0BC05EEFF522D91438F435
:10570000F4FE07C0F2FC05C08FEEF82202C01D2D8A
:1057100001C0192DF4FE0DC0FE01ED0DF11D8081BB
:10572000803319F499EEF92208C01F5FF2FE05C01C
:1057300003C08F2D867809F01F5F0F2DF3FC14C076
:10574000F0FE0FC01E1510F09D2C0BC09D2C9E0C62
:10575000911A1E2D06C080E290E0B3010E94292C10
:105760001F5F1E15C0F304C01E1510F4E11A01C01E
:10577000EE2404FF0FC080E390E0B3010E94292CC7
:1057800002FF1DC001FD03C088E790E00EC088E560
:1057900090E00BC0802F867891F001FF02C08BE271
:1057A00001C080E2F7FC8DE290E0B3010E94292C59
:1057B00006C080E390E0B3010E94292C9A94D9148A
:1057C000C0F3DA94F101ED0DF11D808190E0B30199
:1057D0000E94292CDD20A9F706C080E290E0B301E9
:1057E0000E94292CEA94EE20C1F743CEF301668192
:1057F0007781CB012B960FB6F894DEBF0FBECDBFDD
:10580000CF91DF911F910F91FF90EF90DF90CF909C
:10581000BF90AF909F908F907F906F905F904F90D0
:105820003F902F900895FC01059061507040011049
:10583000D8F7809590958E0F9F1F0895FC016150B9
:10584000704001900110D8F7809590958E0F9F1FA2
:1058500008950F931F93CF93DF938C01EB018B81FE
:1058600081FF1BC082FF0DC02E813F818C819D81F5
:105870002817390764F4E881F9810193F983E883F3
:1058800006C0E885F985802F0995892B31F48E8132
:105890009F8101969F838E8302C00FEF1FEFC80187
:1058A000DF91CF911F910F910895FA01AA27283017
:1058B00051F1203181F1E8946F936E7F6E5F7F4FDD
:1058C0008F4F9F4FAF4FB1E03ED0B4E03CD0670F59
:1058D000781F891F9A1FA11D680F791F8A1F911DAC
:1058E000A11D6A0F711D811D911DA11D20D009F4FC
:1058F00068943F912AE0269F11243019305D31933E
:10590000DEF6CF010895462F4770405D4193B3E026
:105910000FD0C9F7F6CF462F4F70405D4A3318F0CD
:10592000495D31FD4052419302D0A9F7EACFB4E07E
:10593000A6959795879577956795BA95C9F7009736
:105940006105710508959B01AC010A2E06945795D7
:10595000479537952795BA95C9F7620F731F841F2E
:0A596000951FA01D0895F894FFCFD5
:10596A006D656D3A200035342E3233352E313133A0
:10597A002E3130380038303831004572726F72205B
:10598A006F70656E696E672074686520736F636BEC
:10599A0065743A2066726565206D656D3A2000422D
:1059AA006567696E2073656E64696E6720646174E9
:1059BA00612E2E2E007261775F64617461312E74DC
:1059CA0078740046696C6520646F6573206E6F7425
:1059DA00206578697374003A2073656E74004661B5
:1059EA00696C65642073656E64696E6720617420F2
:1059FA006C696E653A200064656C6574696E67202F
:105A0A0066696C652E2E2E0062796500436F6E669C
:105A1A0069677572696E6720475052532E2E2E00A1
:105A2A0054696D656F75742C2066726565206D65A5
:105A3A006D3A00547279696E672054435020636F3F
:105A4A006E6E656374696F6E2E2E00544350206328
:105A5A006F6E6669672074696D6F75742C206D6549
:105A6A006D3A2000475052535F434F4E46494720F4
:105A7A004F4B3A20005443505F434F4E464947200C
:105A8A004F4B3A20004F50454E5F534F434B4554BE
:105A9A00204F4B3A2000446174612075706C6F612D
:105AAA00646564207375636365737366756C6C797A
:105ABA00004461746120636F756C64206E6F74209A
:105ACA0062652075706C6F61646564004661696C1B
